{
    "_format": "hh-sol-artifact-1",
    "contractName": "DimplGovernor",
    "sourceName": "contracts/DimplGovernor.sol",
    "abi": [
        {
            "inputs": [
                {
                    "internalType": "address",
                    "name": "_escrowContract",
                    "type": "address"
                },
                {
                    "internalType": "address",
                    "name": "_governanceTokenContract",
                    "type": "address"
                }
            ],
            "stateMutability": "nonpayable",
            "type": "constructor",
            "signature": "contructor(address,address)"
        },
        {
            "anonymous": false,
            "inputs": [
                {
                    "indexed": true,
                    "internalType": "address",
                    "name": "previousOwner",
                    "type": "address"
                },
                {
                    "indexed": true,
                    "internalType": "address",
                    "name": "newOwner",
                    "type": "address"
                }
            ],
            "name": "OwnershipTransferred",
            "type": "event",
            "topic": "0x8be0079c531659141344cd1fd0a4f28419497f9722a3daafe3b4186f6b6457e0",
            "signature": "OwnershipTransferred(address,address)"
        },
        {
            "anonymous": false,
            "inputs": [
                {
                    "indexed": false,
                    "internalType": "uint256",
                    "name": "listingHash",
                    "type": "uint256"
                },
                {
                    "indexed": false,
                    "internalType": "address",
                    "name": "proposer",
                    "type": "address"
                },
                {
                    "indexed": false,
                    "internalType": "uint256",
                    "name": "snapshotId",
                    "type": "uint256"
                },
                {
                    "indexed": false,
                    "internalType": "uint128",
                    "name": "nonce",
                    "type": "uint128"
                }
            ],
            "name": "ProposalCreated",
            "type": "event",
            "topic": "0x7b8c57e4824a7abb854e880f3d4914ff46e3bf6fecfebe015d6d2840875d5006",
            "signature": "ProposalCreated(uint256,address,uint256,uint128)"
        },
        {
            "anonymous": false,
            "inputs": [
                {
                    "indexed": false,
                    "internalType": "uint256",
                    "name": "listingHash",
                    "type": "uint256"
                },
                {
                    "indexed": false,
                    "internalType": "enum DimplGovernor.VoteType",
                    "name": "voteType",
                    "type": "uint8"
                }
            ],
            "name": "ProposalExecuted",
            "type": "event",
            "topic": "0x5b9614f21773d68c0b149bda804ff3d491c8bc8795f7ed236cc97804cd005389",
            "signature": "ProposalExecuted(uint256,enum DimplGovernor.VoteType)"
        },
        {
            "anonymous": false,
            "inputs": [
                {
                    "indexed": false,
                    "internalType": "uint256",
                    "name": "listingHash",
                    "type": "uint256"
                },
                {
                    "indexed": false,
                    "internalType": "enum DimplGovernor.VoteType",
                    "name": "voteType",
                    "type": "uint8"
                },
                {
                    "indexed": false,
                    "internalType": "uint256",
                    "name": "amount",
                    "type": "uint256"
                }
            ],
            "name": "VoteCast",
            "type": "event",
            "topic": "0x374177e3c0a7f6a3a1badd2b6a3e519ed39c0ce8c35d9ddc4ccfeebfcc481269",
            "signature": "VoteCast(uint256,enum DimplGovernor.VoteType,uint256)"
        },
        {
            "inputs": [
                {
                    "internalType": "address",
                    "name": "account",
                    "type": "address"
                },
                {
                    "internalType": "uint256",
                    "name": "listingHash",
                    "type": "uint256"
                }
            ],
            "name": "balanceOfAt",
            "outputs": [
                {
                    "internalType": "uint256",
                    "name": "",
                    "type": "uint256"
                }
            ],
            "stateMutability": "view",
            "type": "function",
            "sighash": "0x4ee2cd7e",
            "signature": "balanceOfAt(address,uint256)"
        },
        {
            "inputs": [
                {
                    "internalType": "bytes",
                    "name": "_calldata",
                    "type": "bytes"
                }
            ],
            "name": "callDimpleEscrow",
            "outputs": [
                {
                    "internalType": "bytes",
                    "name": "",
                    "type": "bytes"
                }
            ],
            "stateMutability": "payable",
            "type": "function",
            "sighash": "0x354c2b1b",
            "signature": "callDimpleEscrow(bytes)"
        },
        {
            "inputs": [],
            "name": "escrowContract",
            "outputs": [
                {
                    "internalType": "address",
                    "name": "",
                    "type": "address"
                }
            ],
            "stateMutability": "view",
            "type": "function",
            "sighash": "0xe42a96e7",
            "signature": "escrowContract()"
        },
        {
            "inputs": [
                {
                    "internalType": "uint256",
                    "name": "listingHash",
                    "type": "uint256"
                }
            ],
            "name": "execute",
            "outputs": [
                {
                    "internalType": "enum DimplGovernor.VoteType",
                    "name": "",
                    "type": "uint8"
                }
            ],
            "stateMutability": "nonpayable",
            "type": "function",
            "sighash": "0xfe0d94c1",
            "signature": "execute(uint256)"
        },
        {
            "inputs": [],
            "name": "governanceTokenContract",
            "outputs": [
                {
                    "internalType": "address",
                    "name": "",
                    "type": "address"
                }
            ],
            "stateMutability": "view",
            "type": "function",
            "sighash": "0xd878fe03",
            "signature": "governanceTokenContract()"
        },
        {
            "inputs": [],
            "name": "owner",
            "outputs": [
                {
                    "internalType": "address",
                    "name": "",
                    "type": "address"
                }
            ],
            "stateMutability": "view",
            "type": "function",
            "sighash": "0x8da5cb5b",
            "signature": "owner()"
        },
        {
            "inputs": [
                {
                    "internalType": "uint256",
                    "name": "listingHash",
                    "type": "uint256"
                },
                {
                    "internalType": "uint128",
                    "name": "nonce",
                    "type": "uint128"
                }
            ],
            "name": "propose",
            "outputs": [
                {
                    "internalType": "uint256",
                    "name": "",
                    "type": "uint256"
                }
            ],
            "stateMutability": "nonpayable",
            "type": "function",
            "sighash": "0xa62d2d42",
            "signature": "propose(uint256,uint128)"
        },
        {
            "inputs": [],
            "name": "renounceOwnership",
            "outputs": [],
            "stateMutability": "nonpayable",
            "type": "function",
            "sighash": "0x715018a6",
            "signature": "renounceOwnership()"
        },
        {
            "inputs": [
                {
                    "internalType": "uint256",
                    "name": "_votingDelay",
                    "type": "uint256"
                }
            ],
            "name": "setVotingDelay",
            "outputs": [],
            "stateMutability": "nonpayable",
            "type": "function",
            "sighash": "0x70b0f660",
            "signature": "setVotingDelay(uint256)"
        },
        {
            "inputs": [
                {
                    "internalType": "uint256",
                    "name": "_votingDuration",
                    "type": "uint256"
                }
            ],
            "name": "setVotingDuration",
            "outputs": [],
            "stateMutability": "nonpayable",
            "type": "function",
            "sighash": "0x5bcfadb5",
            "signature": "setVotingDuration(uint256)"
        },
        {
            "inputs": [
                {
                    "internalType": "address",
                    "name": "newOwner",
                    "type": "address"
                }
            ],
            "name": "transferOwnership",
            "outputs": [],
            "stateMutability": "nonpayable",
            "type": "function",
            "sighash": "0xf2fde38b",
            "signature": "transferOwnership(address)"
        },
        {
            "inputs": [
                {
                    "internalType": "uint256",
                    "name": "listingHash",
                    "type": "uint256"
                },
                {
                    "internalType": "enum DimplGovernor.VoteType",
                    "name": "voteType",
                    "type": "uint8"
                }
            ],
            "name": "vote",
            "outputs": [
                {
                    "internalType": "uint256",
                    "name": "",
                    "type": "uint256"
                }
            ],
            "stateMutability": "nonpayable",
            "type": "function",
            "sighash": "0x943e8216",
            "signature": "vote(uint256,enum DimplGovernor.VoteType)"
        },
        {
            "inputs": [],
            "name": "votingDelay",
            "outputs": [
                {
                    "internalType": "uint256",
                    "name": "",
                    "type": "uint256"
                }
            ],
            "stateMutability": "view",
            "type": "function",
            "sighash": "0x3932abb1",
            "signature": "votingDelay()"
        },
        {
            "inputs": [],
            "name": "votingDuration",
            "outputs": [
                {
                    "internalType": "uint256",
                    "name": "",
                    "type": "uint256"
                }
            ],
            "stateMutability": "view",
            "type": "function",
            "sighash": "0x132002fc",
            "signature": "votingDuration()"
        }
    ],
    "bytecode": "0x60806040526202a3006003556203f48060045534801561001e57600080fd5b506040516110b73803806110b783398101604081905261003d916100e3565b61004633610077565b600180546001600160a01b039384166001600160a01b03199182161790915560028054929093169116179055610116565b600080546001600160a01b038381166001600160a01b0319831681178455604051919092169283917f8be0079c531659141344cd1fd0a4f28419497f9722a3daafe3b4186f6b6457e09190a35050565b80516001600160a01b03811681146100de57600080fd5b919050565b600080604083850312156100f657600080fd5b6100ff836100c7565b915061010d602084016100c7565b90509250929050565b610f92806101256000396000f3fe6080604052600436106100dd5760003560e01c80638da5cb5b1161007f578063d878fe0311610059578063d878fe031461022a578063e42a96e71461024a578063f2fde38b1461026a578063fe0d94c11461028a57600080fd5b80638da5cb5b146101b8578063943e8216146101ea578063a62d2d421461020a57600080fd5b80634ee2cd7e116100bb5780634ee2cd7e146101415780635bcfadb51461016157806370b0f66014610183578063715018a6146101a357600080fd5b8063132002fc146100e2578063354c2b1b1461010b5780633932abb11461012b575b600080fd5b3480156100ee57600080fd5b506100f860045481565b6040519081526020015b60405180910390f35b61011e610119366004610c08565b6102b7565b6040516101029190610cc7565b34801561013757600080fd5b506100f860035481565b34801561014d57600080fd5b506100f861015c366004610cef565b6103a5565b34801561016d57600080fd5b5061018161017c366004610d1b565b610437565b005b34801561018f57600080fd5b5061018161019e366004610d1b565b610466565b3480156101af57600080fd5b50610181610495565b3480156101c457600080fd5b506000546001600160a01b03165b6040516001600160a01b039091168152602001610102565b3480156101f657600080fd5b506100f8610205366004610d34565b6104cb565b34801561021657600080fd5b506100f8610225366004610d7d565b6106ae565b34801561023657600080fd5b506002546101d2906001600160a01b031681565b34801561025657600080fd5b506001546101d2906001600160a01b031681565b34801561027657600080fd5b50610181610285366004610da2565b6108e2565b34801561029657600080fd5b506102aa6102a5366004610d1b565b61097d565b6040516101029190610df7565b6000546060906001600160a01b031633146102ed5760405162461bcd60e51b81526004016102e490610e05565b60405180910390fd5b60015460405160009182916001600160a01b039091169034906103139088908890610e3a565b60006040518083038185875af1925050503d8060008114610350576040519150601f19603f3d011682016040523d82523d6000602084013e610355565b606091505b509150915061039a82826040518060400160405280601981526020017f63616c6c44696d706c65457363726f7720726576657274656400000000000000815250610b7f565b925050505b92915050565b6002805460008381526005602052604080822090930154925163277166bf60e11b81526001600160a01b0386811660048301526024820194909452909290911690634ee2cd7e90604401602060405180830381865afa15801561040c573d6000803e3d6000fd5b505050506040513d601f19601f820116820180604052508101906104309190610e4a565b9392505050565b6000546001600160a01b031633146104615760405162461bcd60e51b81526004016102e490610e05565b600455565b6000546001600160a01b031633146104905760405162461bcd60e51b81526004016102e490610e05565b600355565b6000546001600160a01b031633146104bf5760405162461bcd60e51b81526004016102e490610e05565b6104c96000610bb8565b565b60008281526005602052604081205460ff16156104e757600080fd5b600083815260056020908152604080832033845260060190915290205460ff161561051157600080fd5b600354600084815260056020526040902060010154439161053a916001600160801b0316610e79565b1061054457600080fd5b600454600354600085815260056020526040902060010154439291610571916001600160801b0316610e79565b61057b9190610e79565b101561058657600080fd5b600061059233856103a5565b60008581526005602090815260408083203384526006019091528120805460ff191660011790559091508360018111156105ce576105ce610dbf565b141561060057600084815260056020526040812060040180548392906105f5908490610e79565b909155506106279050565b60008481526005602081905260408220018054839290610621908490610e79565b90915550505b7f374177e3c0a7f6a3a1badd2b6a3e519ed39c0ce8c35d9ddc4ccfeebfcc48126984848360405161065a93929190610e91565b60405180910390a1600083600181111561067657610676610dbf565b1461069357600084815260056020819052604090912001546106a6565b6000848152600560205260409020600401545b949350505050565b60015460405163de74e57b60e01b8152600481018490526000916001600160a01b0316908290819081908190859063de74e57b9060240160c060405180830381865afa158015610702573d6000803e3d6000fd5b505050506040513d601f19601f820116820180604052508101906107269190610eb3565b95509550955050509350336001600160a01b0316846001600160a01b03161461074e57600080fd5b8261075857600080fd5b6107628183610f1d565b6001600160801b031643101561077757600080fd5b60008881526005602052604090205461010090046001600160a01b031661079d57600080fd5b60008881526005602052604090205460ff16156107b957600080fd5b60025460408051634b88b8ad60e11b815290516000926001600160a01b031691639711715a916004808301926020929190829003018187875af1158015610804573d6000803e3d6000fd5b505050506040513d601f19601f820116820180604052508101906108289190610e4a565b60008a8152600560209081526040918290208054610100600160a81b0319163361010081029190911782556001820180546fffffffffffffffffffffffffffffffff1916436001600160801b0390811691909117909155600383018f9055600290920185905583518e815292830152918101839052908a1660608201529091507f7b8c57e4824a7abb854e880f3d4914ff46e3bf6fecfebe015d6d2840875d50069060800160405180910390a15096979650505050505050565b6000546001600160a01b0316331461090c5760405162461bcd60e51b81526004016102e490610e05565b6001600160a01b0381166109715760405162461bcd60e51b815260206004820152602660248201527f4f776e61626c653a206e6577206f776e657220697320746865207a65726f206160448201526564647265737360d01b60648201526084016102e4565b61097a81610bb8565b50565b60008181526005602052604081205460ff161561099957600080fd5b6004546003546000848152600560205260409020600101544392916109c6916001600160801b0316610e79565b6109d09190610e79565b106109da57600080fd5b60008281526005602081905260408220805460ff19166001178155600481015491015411610a09576000610a0c565b60015b90506001816001811115610a2257610a22610dbf565b1415610ab6576002546000848152600560205260409081902060030154905163314ec1bd60e11b81526001600160a01b039092169163629d837a91610a6d9160040190815260200190565b6020604051808303816000875af1158015610a8c573d6000803e3d6000fd5b505050506040513d601f19601f82011682018060405250810190610ab09190610e4a565b50610b40565b6002546000848152600560205260409081902060030154905163acf9697f60e01b81526001600160a01b039092169163acf9697f91610afb9160040190815260200190565b6020604051808303816000875af1158015610b1a573d6000803e3d6000fd5b505050506040513d601f19601f82011682018060405250810190610b3e9190610e4a565b505b7f5b9614f21773d68c0b149bda804ff3d491c8bc8795f7ed236cc97804cd0053898382604051610b71929190610f48565b60405180910390a192915050565b60608315610b8e575081610430565b825115610b9e5782518084602001fd5b8160405162461bcd60e51b81526004016102e49190610cc7565b600080546001600160a01b038381166001600160a01b0319831681178455604051919092169283917f8be0079c531659141344cd1fd0a4f28419497f9722a3daafe3b4186f6b6457e09190a35050565b60008060208385031215610c1b57600080fd5b823567ffffffffffffffff80821115610c3357600080fd5b818501915085601f830112610c4757600080fd5b813581811115610c5657600080fd5b866020828501011115610c6857600080fd5b60209290920196919550909350505050565b6000815180845260005b81811015610ca057602081850181015186830182015201610c84565b81811115610cb2576000602083870101525b50601f01601f19169290920160200192915050565b6020815260006104306020830184610c7a565b6001600160a01b038116811461097a57600080fd5b60008060408385031215610d0257600080fd5b8235610d0d81610cda565b946020939093013593505050565b600060208284031215610d2d57600080fd5b5035919050565b60008060408385031215610d4757600080fd5b82359150602083013560028110610d5d57600080fd5b809150509250929050565b6001600160801b038116811461097a57600080fd5b60008060408385031215610d9057600080fd5b823591506020830135610d5d81610d68565b600060208284031215610db457600080fd5b813561043081610cda565b634e487b7160e01b600052602160045260246000fd5b60028110610df357634e487b7160e01b600052602160045260246000fd5b9052565b6020810161039f8284610dd5565b6020808252818101527f4f776e61626c653a2063616c6c6572206973206e6f7420746865206f776e6572604082015260600190565b8183823760009101908152919050565b600060208284031215610e5c57600080fd5b5051919050565b634e487b7160e01b600052601160045260246000fd5b60008219821115610e8c57610e8c610e63565b500190565b83815260608101610ea56020830185610dd5565b826040830152949350505050565b60008060008060008060c08789031215610ecc57600080fd5b8651610ed781610cda565b809650506020870151945060408701519350606087015192506080870151610efe81610d68565b60a0880151909250610f0f81610d68565b809150509295509295509295565b60006001600160801b03808316818516808303821115610f3f57610f3f610e63565b01949350505050565b828152604081016104306020830184610dd556fea26469706673582212205958291e2c1cdffdce41240c200062599d34ce6883a6a525019374a8510c746164736f6c634300080c0033",
    "linkReferences": {},
    "deployedLinkReferences": {}
}