{
    "_format": "hh-sol-artifact-1",
    "contractName": "DimplERC20",
    "sourceName": "contracts/DimplERC20.sol",
    "abi": [
        {
            "inputs": [],
            "stateMutability": "nonpayable",
            "type": "constructor",
            "signature": "contructor()"
        },
        {
            "anonymous": false,
            "inputs": [
                {
                    "indexed": true,
                    "internalType": "address",
                    "name": "owner",
                    "type": "address"
                },
                {
                    "indexed": true,
                    "internalType": "address",
                    "name": "spender",
                    "type": "address"
                },
                {
                    "indexed": false,
                    "internalType": "uint256",
                    "name": "value",
                    "type": "uint256"
                }
            ],
            "name": "Approval",
            "type": "event",
            "topic": "0x8c5be1e5ebec7d5bd14f71427d1e84f3dd0314c0f7b2291e5b200ac8c7c3b925",
            "signature": "Approval(address,address,uint256)"
        },
        {
            "anonymous": false,
            "inputs": [
                {
                    "indexed": true,
                    "internalType": "address",
                    "name": "previousOwner",
                    "type": "address"
                },
                {
                    "indexed": true,
                    "internalType": "address",
                    "name": "newOwner",
                    "type": "address"
                }
            ],
            "name": "OwnershipTransferred",
            "type": "event",
            "topic": "0x8be0079c531659141344cd1fd0a4f28419497f9722a3daafe3b4186f6b6457e0",
            "signature": "OwnershipTransferred(address,address)"
        },
        {
            "anonymous": false,
            "inputs": [
                {
                    "indexed": false,
                    "internalType": "uint256",
                    "name": "id",
                    "type": "uint256"
                }
            ],
            "name": "Snapshot",
            "type": "event",
            "topic": "0x8030e83b04d87bef53480e26263266d6ca66863aa8506aca6f2559d18aa1cb67",
            "signature": "Snapshot(uint256)"
        },
        {
            "anonymous": false,
            "inputs": [
                {
                    "indexed": true,
                    "internalType": "address",
                    "name": "from",
                    "type": "address"
                },
                {
                    "indexed": true,
                    "internalType": "address",
                    "name": "to",
                    "type": "address"
                },
                {
                    "indexed": false,
                    "internalType": "uint256",
                    "name": "value",
                    "type": "uint256"
                }
            ],
            "name": "Transfer",
            "type": "event",
            "topic": "0xddf252ad1be2c89b69c2b068fc378daa952ba7f163c4a11628f55a4df523b3ef",
            "signature": "Transfer(address,address,uint256)"
        },
        {
            "inputs": [
                {
                    "internalType": "address",
                    "name": "owner",
                    "type": "address"
                },
                {
                    "internalType": "address",
                    "name": "spender",
                    "type": "address"
                }
            ],
            "name": "allowance",
            "outputs": [
                {
                    "internalType": "uint256",
                    "name": "",
                    "type": "uint256"
                }
            ],
            "stateMutability": "view",
            "type": "function",
            "sighash": "0xdd62ed3e",
            "signature": "allowance(address,address)"
        },
        {
            "inputs": [
                {
                    "internalType": "address",
                    "name": "spender",
                    "type": "address"
                },
                {
                    "internalType": "uint256",
                    "name": "amount",
                    "type": "uint256"
                }
            ],
            "name": "approve",
            "outputs": [
                {
                    "internalType": "bool",
                    "name": "",
                    "type": "bool"
                }
            ],
            "stateMutability": "nonpayable",
            "type": "function",
            "sighash": "0x095ea7b3",
            "signature": "approve(address,uint256)"
        },
        {
            "inputs": [
                {
                    "internalType": "address",
                    "name": "account",
                    "type": "address"
                }
            ],
            "name": "balanceOf",
            "outputs": [
                {
                    "internalType": "uint256",
                    "name": "",
                    "type": "uint256"
                }
            ],
            "stateMutability": "view",
            "type": "function",
            "sighash": "0x70a08231",
            "signature": "balanceOf(address)"
        },
        {
            "inputs": [
                {
                    "internalType": "address",
                    "name": "account",
                    "type": "address"
                },
                {
                    "internalType": "uint256",
                    "name": "snapshotId",
                    "type": "uint256"
                }
            ],
            "name": "balanceOfAt",
            "outputs": [
                {
                    "internalType": "uint256",
                    "name": "",
                    "type": "uint256"
                }
            ],
            "stateMutability": "view",
            "type": "function",
            "sighash": "0x4ee2cd7e",
            "signature": "balanceOfAt(address,uint256)"
        },
        {
            "inputs": [],
            "name": "decimals",
            "outputs": [
                {
                    "internalType": "uint8",
                    "name": "",
                    "type": "uint8"
                }
            ],
            "stateMutability": "view",
            "type": "function",
            "sighash": "0x313ce567",
            "signature": "decimals()"
        },
        {
            "inputs": [
                {
                    "internalType": "address",
                    "name": "spender",
                    "type": "address"
                },
                {
                    "internalType": "uint256",
                    "name": "subtractedValue",
                    "type": "uint256"
                }
            ],
            "name": "decreaseAllowance",
            "outputs": [
                {
                    "internalType": "bool",
                    "name": "",
                    "type": "bool"
                }
            ],
            "stateMutability": "nonpayable",
            "type": "function",
            "sighash": "0xa457c2d7",
            "signature": "decreaseAllowance(address,uint256)"
        },
        {
            "inputs": [
                {
                    "internalType": "address",
                    "name": "spender",
                    "type": "address"
                },
                {
                    "internalType": "uint256",
                    "name": "addedValue",
                    "type": "uint256"
                }
            ],
            "name": "increaseAllowance",
            "outputs": [
                {
                    "internalType": "bool",
                    "name": "",
                    "type": "bool"
                }
            ],
            "stateMutability": "nonpayable",
            "type": "function",
            "sighash": "0x39509351",
            "signature": "increaseAllowance(address,uint256)"
        },
        {
            "inputs": [
                {
                    "internalType": "address",
                    "name": "to",
                    "type": "address"
                },
                {
                    "internalType": "uint256",
                    "name": "amount",
                    "type": "uint256"
                }
            ],
            "name": "mint",
            "outputs": [],
            "stateMutability": "nonpayable",
            "type": "function",
            "sighash": "0x40c10f19",
            "signature": "mint(address,uint256)"
        },
        {
            "inputs": [],
            "name": "name",
            "outputs": [
                {
                    "internalType": "string",
                    "name": "",
                    "type": "string"
                }
            ],
            "stateMutability": "view",
            "type": "function",
            "sighash": "0x06fdde03",
            "signature": "name()"
        },
        {
            "inputs": [],
            "name": "owner",
            "outputs": [
                {
                    "internalType": "address",
                    "name": "",
                    "type": "address"
                }
            ],
            "stateMutability": "view",
            "type": "function",
            "sighash": "0x8da5cb5b",
            "signature": "owner()"
        },
        {
            "inputs": [],
            "name": "renounceOwnership",
            "outputs": [],
            "stateMutability": "nonpayable",
            "type": "function",
            "sighash": "0x715018a6",
            "signature": "renounceOwnership()"
        },
        {
            "inputs": [],
            "name": "snapshot",
            "outputs": [
                {
                    "internalType": "uint256",
                    "name": "",
                    "type": "uint256"
                }
            ],
            "stateMutability": "nonpayable",
            "type": "function",
            "sighash": "0x9711715a",
            "signature": "snapshot()"
        },
        {
            "inputs": [],
            "name": "symbol",
            "outputs": [
                {
                    "internalType": "string",
                    "name": "",
                    "type": "string"
                }
            ],
            "stateMutability": "view",
            "type": "function",
            "sighash": "0x95d89b41",
            "signature": "symbol()"
        },
        {
            "inputs": [],
            "name": "totalSupply",
            "outputs": [
                {
                    "internalType": "uint256",
                    "name": "",
                    "type": "uint256"
                }
            ],
            "stateMutability": "view",
            "type": "function",
            "sighash": "0x18160ddd",
            "signature": "totalSupply()"
        },
        {
            "inputs": [
                {
                    "internalType": "uint256",
                    "name": "snapshotId",
                    "type": "uint256"
                }
            ],
            "name": "totalSupplyAt",
            "outputs": [
                {
                    "internalType": "uint256",
                    "name": "",
                    "type": "uint256"
                }
            ],
            "stateMutability": "view",
            "type": "function",
            "sighash": "0x981b24d0",
            "signature": "totalSupplyAt(uint256)"
        },
        {
            "inputs": [
                {
                    "internalType": "address",
                    "name": "to",
                    "type": "address"
                },
                {
                    "internalType": "uint256",
                    "name": "amount",
                    "type": "uint256"
                }
            ],
            "name": "transfer",
            "outputs": [
                {
                    "internalType": "bool",
                    "name": "",
                    "type": "bool"
                }
            ],
            "stateMutability": "nonpayable",
            "type": "function",
            "sighash": "0xa9059cbb",
            "signature": "transfer(address,uint256)"
        },
        {
            "inputs": [
                {
                    "internalType": "address",
                    "name": "from",
                    "type": "address"
                },
                {
                    "internalType": "address",
                    "name": "to",
                    "type": "address"
                },
                {
                    "internalType": "uint256",
                    "name": "amount",
                    "type": "uint256"
                }
            ],
            "name": "transferFrom",
            "outputs": [
                {
                    "internalType": "bool",
                    "name": "",
                    "type": "bool"
                }
            ],
            "stateMutability": "nonpayable",
            "type": "function",
            "sighash": "0x23b872dd",
            "signature": "transferFrom(address,address,uint256)"
        },
        {
            "inputs": [
                {
                    "internalType": "address",
                    "name": "newOwner",
                    "type": "address"
                }
            ],
            "name": "transferOwnership",
            "outputs": [],
            "stateMutability": "nonpayable",
            "type": "function",
            "sighash": "0xf2fde38b",
            "signature": "transferOwnership(address)"
        }
    ],
    "bytecode": "0x60806040523480156200001157600080fd5b5060405180604001604052806005815260200164111a5b5c1b60da1b815250604051806040016040528060038152602001620444d560ec1b81525081600390805190602001906200006492919062000389565b5080516200007a90600490602084019062000389565b5050506200009762000091620000b560201b60201c565b620000b9565b620000af336b033b2e3c9fd0803ce80000006200010b565b620004cd565b3390565b600980546001600160a01b038381166001600160a01b0319831681179093556040519116919082907f8be0079c531659141344cd1fd0a4f28419497f9722a3daafe3b4186f6b6457e090600090a35050565b6001600160a01b038216620001665760405162461bcd60e51b815260206004820152601f60248201527f45524332303a206d696e7420746f20746865207a65726f206164647265737300604482015260640160405180910390fd5b620001746000838362000201565b806002600082825462000188919062000445565b90915550506001600160a01b03821660009081526020819052604081208054839290620001b790849062000445565b90915550506040518181526001600160a01b038316906000907fddf252ad1be2c89b69c2b068fc378daa952ba7f163c4a11628f55a4df523b3ef9060200160405180910390a35050565b620002198383836200021e60201b6200060f1760201c565b505050565b620002368383836200021960201b6200062e1760201c565b6001600160a01b0383166200025a57620002508262000285565b62000219620002bd565b6001600160a01b0382166200027457620002508362000285565b6200027f8362000285565b62000219825b6001600160a01b03811660009081526005602090815260408083209183905290912054620002ba9190620002cf565b620002cf565b50565b620002cd6006620002b460025490565b565b6000620002db6200031e565b905080620002e9846200033c565b101562000219578254600180820185556000858152602080822090930193909355938401805494850181558252902090910155565b60006200033760086200038560201b6200065c1760201c565b905090565b80546000906200034e57506000919050565b81548290620003609060019062000460565b815481106200037357620003736200047a565b90600052602060002001549050919050565b5490565b828054620003979062000490565b90600052602060002090601f016020900481019282620003bb576000855562000406565b82601f10620003d657805160ff191683800117855562000406565b8280016001018555821562000406579182015b8281111562000406578251825591602001919060010190620003e9565b506200041492915062000418565b5090565b5b8082111562000414576000815560010162000419565b634e487b7160e01b600052601160045260246000fd5b600082198211156200045b576200045b6200042f565b500190565b6000828210156200047557620004756200042f565b500390565b634e487b7160e01b600052603260045260246000fd5b600181811c90821680620004a557607f821691505b60208210811415620004c757634e487b7160e01b600052602260045260246000fd5b50919050565b6110a680620004dd6000396000f3fe608060405234801561001057600080fd5b50600436106101165760003560e01c8063715018a6116100a2578063981b24d011610071578063981b24d014610227578063a457c2d71461023a578063a9059cbb1461024d578063dd62ed3e14610260578063f2fde38b1461029957600080fd5b8063715018a6146101f45780638da5cb5b146101fc57806395d89b41146102175780639711715a1461021f57600080fd5b8063313ce567116100e9578063313ce56714610181578063395093511461019057806340c10f19146101a35780634ee2cd7e146101b857806370a08231146101cb57600080fd5b806306fdde031461011b578063095ea7b31461013957806318160ddd1461015c57806323b872dd1461016e575b600080fd5b6101236102ac565b6040516101309190610e4a565b60405180910390f35b61014c610147366004610eb6565b61033e565b6040519015158152602001610130565b6002545b604051908152602001610130565b61014c61017c366004610ee0565b610358565b60405160128152602001610130565b61014c61019e366004610eb6565b61037c565b6101b66101b1366004610eb6565b6103bb565b005b6101606101c6366004610eb6565b6103fc565b6101606101d9366004610f1c565b6001600160a01b031660009081526020819052604090205490565b6101b6610455565b6009546040516001600160a01b039091168152602001610130565b61012361048b565b61016061049a565b610160610235366004610f37565b6104a9565b61014c610248366004610eb6565b6104d4565b61014c61025b366004610eb6565b610566565b61016061026e366004610f50565b6001600160a01b03918216600090815260016020908152604080832093909416825291909152205490565b6101b66102a7366004610f1c565b610574565b6060600380546102bb90610f83565b80601f01602080910402602001604051908101604052809291908181526020018280546102e790610f83565b80156103345780601f1061030957610100808354040283529160200191610334565b820191906000526020600020905b81548152906001019060200180831161031757829003601f168201915b5050505050905090565b60003361034c818585610660565b60019150505b92915050565b600033610366858285610784565b610371858585610816565b506001949350505050565b3360008181526001602090815260408083206001600160a01b038716845290915281205490919061034c90829086906103b6908790610fd4565b610660565b6009546001600160a01b031633146103ee5760405162461bcd60e51b81526004016103e590610fec565b60405180910390fd5b6103f882826109ef565b5050565b6001600160a01b038216600090815260056020526040812081908190610423908590610ada565b915091508161044a576001600160a01b03851660009081526020819052604090205461044c565b805b95945050505050565b6009546001600160a01b0316331461047f5760405162461bcd60e51b81526004016103e590610fec565b6104896000610bd1565b565b6060600480546102bb90610f83565b60006104a4610c23565b905090565b60008060006104b9846006610ada565b91509150816104ca576002546104cc565b805b949350505050565b3360008181526001602090815260408083206001600160a01b0387168452909152812054909190838110156105595760405162461bcd60e51b815260206004820152602560248201527f45524332303a2064656372656173656420616c6c6f77616e63652062656c6f77604482015264207a65726f60d81b60648201526084016103e5565b6103718286868403610660565b60003361034c818585610816565b6009546001600160a01b0316331461059e5760405162461bcd60e51b81526004016103e590610fec565b6001600160a01b0381166106035760405162461bcd60e51b815260206004820152602660248201527f4f776e61626c653a206e6577206f776e657220697320746865207a65726f206160448201526564647265737360d01b60648201526084016103e5565b61060c81610bd1565b50565b6001600160a01b0383166106335761062682610c7d565b61062e610caf565b505050565b6001600160a01b03821661064a5761062683610c7d565b61065383610c7d565b61062e82610c7d565b5490565b6001600160a01b0383166106c25760405162461bcd60e51b8152602060048201526024808201527f45524332303a20617070726f76652066726f6d20746865207a65726f206164646044820152637265737360e01b60648201526084016103e5565b6001600160a01b0382166107235760405162461bcd60e51b815260206004820152602260248201527f45524332303a20617070726f766520746f20746865207a65726f206164647265604482015261737360f01b60648201526084016103e5565b6001600160a01b0383811660008181526001602090815260408083209487168084529482529182902085905590518481527f8c5be1e5ebec7d5bd14f71427d1e84f3dd0314c0f7b2291e5b200ac8c7c3b925910160405180910390a3505050565b6001600160a01b03838116600090815260016020908152604080832093861683529290522054600019811461081057818110156108035760405162461bcd60e51b815260206004820152601d60248201527f45524332303a20696e73756666696369656e7420616c6c6f77616e636500000060448201526064016103e5565b6108108484848403610660565b50505050565b6001600160a01b03831661087a5760405162461bcd60e51b815260206004820152602560248201527f45524332303a207472616e736665722066726f6d20746865207a65726f206164604482015264647265737360d81b60648201526084016103e5565b6001600160a01b0382166108dc5760405162461bcd60e51b815260206004820152602360248201527f45524332303a207472616e7366657220746f20746865207a65726f206164647260448201526265737360e81b60648201526084016103e5565b6108e7838383610cbd565b6001600160a01b0383166000908152602081905260409020548181101561095f5760405162461bcd60e51b815260206004820152602660248201527f45524332303a207472616e7366657220616d6f756e7420657863656564732062604482015265616c616e636560d01b60648201526084016103e5565b6001600160a01b03808516600090815260208190526040808220858503905591851681529081208054849290610996908490610fd4565b92505081905550826001600160a01b0316846001600160a01b03167fddf252ad1be2c89b69c2b068fc378daa952ba7f163c4a11628f55a4df523b3ef846040516109e291815260200190565b60405180910390a3610810565b6001600160a01b038216610a455760405162461bcd60e51b815260206004820152601f60248201527f45524332303a206d696e7420746f20746865207a65726f20616464726573730060448201526064016103e5565b610a5160008383610cbd565b8060026000828254610a639190610fd4565b90915550506001600160a01b03821660009081526020819052604081208054839290610a90908490610fd4565b90915550506040518181526001600160a01b038316906000907fddf252ad1be2c89b69c2b068fc378daa952ba7f163c4a11628f55a4df523b3ef9060200160405180910390a35050565b60008060008411610b265760405162461bcd60e51b815260206004820152601660248201527504552433230536e617073686f743a20696420697320360541b60448201526064016103e5565b610b2e610cc8565b841115610b7d5760405162461bcd60e51b815260206004820152601d60248201527f4552433230536e617073686f743a206e6f6e6578697374656e7420696400000060448201526064016103e5565b6000610b898486610cd3565b8454909150811415610ba2576000809250925050610bca565b6001846001018281548110610bb957610bb9611021565b906000526020600020015492509250505b9250929050565b600980546001600160a01b038381166001600160a01b0319831681179093556040519116919082907f8be0079c531659141344cd1fd0a4f28419497f9722a3daafe3b4186f6b6457e090600090a35050565b6000610c33600880546001019055565b6000610c3d610cc8565b90507f8030e83b04d87bef53480e26263266d6ca66863aa8506aca6f2559d18aa1cb6781604051610c7091815260200190565b60405180910390a1919050565b6001600160a01b0381166000908152600560209081526040808320918390529091205461060c9190610d96565b610d96565b6104896006610caa60025490565b61062e83838361060f565b60006104a460085490565b8154600090610ce457506000610352565b82546000905b80821015610d40576000610cfe8383610de0565b905084868281548110610d1357610d13611021565b90600052602060002001541115610d2c57809150610d3a565b610d37816001610fd4565b92505b50610cea565b600082118015610d7557508385610d58600185611037565b81548110610d6857610d68611021565b9060005260206000200154145b15610d8e57610d85600183611037565b92505050610352565b509050610352565b6000610da0610cc8565b905080610dac84610e02565b101561062e578254600180820185556000858152602080822090930193909355938401805494850181558252902090910155565b6000610def600284841861104e565b610dfb90848416610fd4565b9392505050565b8054600090610e1357506000919050565b81548290610e2390600190611037565b81548110610e3357610e33611021565b90600052602060002001549050919050565b919050565b600060208083528351808285015260005b81811015610e7757858101830151858201604001528201610e5b565b81811115610e89576000604083870101525b50601f01601f1916929092016040019392505050565b80356001600160a01b0381168114610e4557600080fd5b60008060408385031215610ec957600080fd5b610ed283610e9f565b946020939093013593505050565b600080600060608486031215610ef557600080fd5b610efe84610e9f565b9250610f0c60208501610e9f565b9150604084013590509250925092565b600060208284031215610f2e57600080fd5b610dfb82610e9f565b600060208284031215610f4957600080fd5b5035919050565b60008060408385031215610f6357600080fd5b610f6c83610e9f565b9150610f7a60208401610e9f565b90509250929050565b600181811c90821680610f9757607f821691505b60208210811415610fb857634e487b7160e01b600052602260045260246000fd5b50919050565b634e487b7160e01b600052601160045260246000fd5b60008219821115610fe757610fe7610fbe565b500190565b6020808252818101527f4f776e61626c653a2063616c6c6572206973206e6f7420746865206f776e6572604082015260600190565b634e487b7160e01b600052603260045260246000fd5b60008282101561104957611049610fbe565b500390565b60008261106b57634e487b7160e01b600052601260045260246000fd5b50049056fea26469706673582212208fd49b51c4f1af84d3e88b71edb9b85788e3815754544592a1d1eeeeba706e6d64736f6c634300080c0033",
    "linkReferences": {},
    "deployedLinkReferences": {}
}