{
    "_format": "hh-sol-artifact-1",
    "contractName": "DimplEscrow",
    "sourceName": "contracts/DimplEscrow.sol",
    "abi": [
        {
            "inputs": [
                {
                    "internalType": "address",
                    "name": "_governanceTokenContract",
                    "type": "address"
                }
            ],
            "stateMutability": "nonpayable",
            "type": "constructor",
            "signature": "contructor(address)"
        },
        {
            "anonymous": false,
            "inputs": [
                {
                    "indexed": false,
                    "internalType": "uint256",
                    "name": "bidHash",
                    "type": "uint256"
                }
            ],
            "name": "BidCanceled",
            "type": "event",
            "topic": "0xf72c9cb76aa633bc9310fa98738d474339fdf2f23dfac70ccbd65e593f6654df",
            "signature": "BidCanceled(uint256)"
        },
        {
            "anonymous": false,
            "inputs": [
                {
                    "indexed": false,
                    "internalType": "uint256",
                    "name": "bidHash",
                    "type": "uint256"
                },
                {
                    "indexed": false,
                    "internalType": "address",
                    "name": "buyer",
                    "type": "address"
                },
                {
                    "indexed": false,
                    "internalType": "uint256",
                    "name": "depositInPeb",
                    "type": "uint256"
                },
                {
                    "indexed": false,
                    "internalType": "uint256",
                    "name": "listingHash",
                    "type": "uint256"
                },
                {
                    "indexed": false,
                    "internalType": "uint128",
                    "name": "bidCreatedBlock",
                    "type": "uint128"
                },
                {
                    "indexed": false,
                    "internalType": "uint128",
                    "name": "nonce",
                    "type": "uint128"
                }
            ],
            "name": "BidCreated",
            "type": "event",
            "topic": "0x156e718295cabed98b4803de269975c3a4a0b052b10d64ad296498af5144aebe",
            "signature": "BidCreated(uint256,address,uint256,uint256,uint128,uint128)"
        },
        {
            "anonymous": false,
            "inputs": [
                {
                    "indexed": false,
                    "internalType": "uint256",
                    "name": "bidHash",
                    "type": "uint256"
                }
            ],
            "name": "BidSelected",
            "type": "event",
            "topic": "0x8d8b1437eb027177341f053ad111a3528bb841f889cb10ae326e8ec1fff6dacb",
            "signature": "BidSelected(uint256)"
        },
        {
            "anonymous": false,
            "inputs": [
                {
                    "indexed": false,
                    "internalType": "uint256",
                    "name": "listingHash",
                    "type": "uint256"
                }
            ],
            "name": "ListingCanceled",
            "type": "event",
            "topic": "0x5d7a33421ffa4bc07eb8929c5ace6393d3aa5ec3775e4e2f442527876b7dbe88",
            "signature": "ListingCanceled(uint256)"
        },
        {
            "anonymous": false,
            "inputs": [
                {
                    "indexed": false,
                    "internalType": "uint256",
                    "name": "listingHash",
                    "type": "uint256"
                },
                {
                    "indexed": false,
                    "internalType": "address",
                    "name": "seller",
                    "type": "address"
                },
                {
                    "indexed": false,
                    "internalType": "uint256",
                    "name": "depositInPeb",
                    "type": "uint256"
                },
                {
                    "indexed": false,
                    "internalType": "uint256",
                    "name": "priceInPeb",
                    "type": "uint256"
                },
                {
                    "indexed": false,
                    "internalType": "uint128",
                    "name": "remonstrableBlockInterval",
                    "type": "uint128"
                },
                {
                    "indexed": false,
                    "internalType": "uint128",
                    "name": "nonce",
                    "type": "uint128"
                }
            ],
            "name": "ListingCreated",
            "type": "event",
            "topic": "0x7d6c9e442f651c85a9c4c3424d8dec264d2d05104c33e742511dc72218b85df2",
            "signature": "ListingCreated(uint256,address,uint256,uint256,uint128,uint128)"
        },
        {
            "anonymous": false,
            "inputs": [
                {
                    "indexed": true,
                    "internalType": "address",
                    "name": "previousOwner",
                    "type": "address"
                },
                {
                    "indexed": true,
                    "internalType": "address",
                    "name": "newOwner",
                    "type": "address"
                }
            ],
            "name": "OwnershipTransferred",
            "type": "event",
            "topic": "0x8be0079c531659141344cd1fd0a4f28419497f9722a3daafe3b4186f6b6457e0",
            "signature": "OwnershipTransferred(address,address)"
        },
        {
            "anonymous": false,
            "inputs": [
                {
                    "indexed": false,
                    "internalType": "uint256",
                    "name": "listingHash",
                    "type": "uint256"
                }
            ],
            "name": "TransactionApproved",
            "type": "event",
            "topic": "0xbd3984aa34b5ed86a6d4f470c1c4b79e124b8801762705aa1887495eb991b130",
            "signature": "TransactionApproved(uint256)"
        },
        {
            "anonymous": false,
            "inputs": [
                {
                    "indexed": false,
                    "internalType": "uint256",
                    "name": "listingHash",
                    "type": "uint256"
                }
            ],
            "name": "TransactionForceApproved",
            "type": "event",
            "topic": "0xa476146fe4bbf799b994db2d50a53939472e1f3a4c54d3d5187b44eb23d69519",
            "signature": "TransactionForceApproved(uint256)"
        },
        {
            "anonymous": false,
            "inputs": [
                {
                    "indexed": false,
                    "internalType": "uint256",
                    "name": "listingHash",
                    "type": "uint256"
                }
            ],
            "name": "TransactionForceCanceled",
            "type": "event",
            "topic": "0x1b3883864c0b1ba1221c170465546504388dd5e452b28120749bfa97b8501d9c",
            "signature": "TransactionForceCanceled(uint256)"
        },
        {
            "inputs": [
                {
                    "internalType": "uint256",
                    "name": "listingHash",
                    "type": "uint256"
                }
            ],
            "name": "approveTransaction",
            "outputs": [
                {
                    "internalType": "uint256",
                    "name": "",
                    "type": "uint256"
                }
            ],
            "stateMutability": "nonpayable",
            "type": "function",
            "sighash": "0x242232d1",
            "signature": "approveTransaction(uint256)"
        },
        {
            "inputs": [
                {
                    "internalType": "uint256",
                    "name": "listingHash",
                    "type": "uint256"
                },
                {
                    "internalType": "uint128",
                    "name": "nonce",
                    "type": "uint128"
                }
            ],
            "name": "bid",
            "outputs": [
                {
                    "internalType": "uint256",
                    "name": "",
                    "type": "uint256"
                }
            ],
            "stateMutability": "payable",
            "type": "function",
            "sighash": "0x4cafdb15",
            "signature": "bid(uint256,uint128)"
        },
        {
            "inputs": [],
            "name": "bidMinDepositBasisPts",
            "outputs": [
                {
                    "internalType": "uint16",
                    "name": "",
                    "type": "uint16"
                }
            ],
            "stateMutability": "view",
            "type": "function",
            "sighash": "0x34b947d2",
            "signature": "bidMinDepositBasisPts()"
        },
        {
            "inputs": [
                {
                    "internalType": "uint256",
                    "name": "",
                    "type": "uint256"
                }
            ],
            "name": "bids",
            "outputs": [
                {
                    "internalType": "address",
                    "name": "buyer",
                    "type": "address"
                },
                {
                    "internalType": "uint128",
                    "name": "bidCreatedBlock",
                    "type": "uint128"
                },
                {
                    "internalType": "uint256",
                    "name": "depositInPeb",
                    "type": "uint256"
                },
                {
                    "internalType": "uint256",
                    "name": "listingHash",
                    "type": "uint256"
                }
            ],
            "stateMutability": "view",
            "type": "function",
            "sighash": "0x4423c5f1",
            "signature": "bids(uint256)"
        },
        {
            "inputs": [],
            "name": "blockToWeek",
            "outputs": [
                {
                    "internalType": "uint256",
                    "name": "",
                    "type": "uint256"
                }
            ],
            "stateMutability": "view",
            "type": "function",
            "sighash": "0x25fb4c9e",
            "signature": "blockToWeek()"
        },
        {
            "inputs": [
                {
                    "internalType": "bytes",
                    "name": "_calldata",
                    "type": "bytes"
                }
            ],
            "name": "callDimpleERC20",
            "outputs": [
                {
                    "internalType": "bytes",
                    "name": "",
                    "type": "bytes"
                }
            ],
            "stateMutability": "payable",
            "type": "function",
            "sighash": "0x2356dc32",
            "signature": "callDimpleERC20(bytes)"
        },
        {
            "inputs": [
                {
                    "internalType": "uint256",
                    "name": "bidHash",
                    "type": "uint256"
                }
            ],
            "name": "cancelBid",
            "outputs": [
                {
                    "internalType": "address",
                    "name": "",
                    "type": "address"
                }
            ],
            "stateMutability": "nonpayable",
            "type": "function",
            "sighash": "0x9703ef35",
            "signature": "cancelBid(uint256)"
        },
        {
            "inputs": [
                {
                    "internalType": "uint256",
                    "name": "listingHash",
                    "type": "uint256"
                }
            ],
            "name": "cancelListing",
            "outputs": [
                {
                    "internalType": "address",
                    "name": "",
                    "type": "address"
                }
            ],
            "stateMutability": "nonpayable",
            "type": "function",
            "sighash": "0x305a67a8",
            "signature": "cancelListing(uint256)"
        },
        {
            "inputs": [
                {
                    "internalType": "uint256",
                    "name": "listingHash",
                    "type": "uint256"
                }
            ],
            "name": "forceApproveTransaction",
            "outputs": [
                {
                    "internalType": "uint256",
                    "name": "",
                    "type": "uint256"
                }
            ],
            "stateMutability": "nonpayable",
            "type": "function",
            "sighash": "0xacf9697f",
            "signature": "forceApproveTransaction(uint256)"
        },
        {
            "inputs": [
                {
                    "internalType": "uint256",
                    "name": "listingHash",
                    "type": "uint256"
                }
            ],
            "name": "forceCancelTransaction",
            "outputs": [
                {
                    "internalType": "uint256",
                    "name": "",
                    "type": "uint256"
                }
            ],
            "stateMutability": "nonpayable",
            "type": "function",
            "sighash": "0x629d837a",
            "signature": "forceCancelTransaction(uint256)"
        },
        {
            "inputs": [
                {
                    "internalType": "address",
                    "name": "account",
                    "type": "address"
                },
                {
                    "internalType": "uint256",
                    "name": "deposit",
                    "type": "uint256"
                },
                {
                    "internalType": "uint256",
                    "name": "listingHash",
                    "type": "uint256"
                },
                {
                    "internalType": "uint128",
                    "name": "nonce",
                    "type": "uint128"
                }
            ],
            "name": "getBid",
            "outputs": [
                {
                    "components": [
                        {
                            "internalType": "address",
                            "name": "buyer",
                            "type": "address"
                        },
                        {
                            "internalType": "uint128",
                            "name": "bidCreatedBlock",
                            "type": "uint128"
                        },
                        {
                            "internalType": "uint256",
                            "name": "depositInPeb",
                            "type": "uint256"
                        },
                        {
                            "internalType": "uint256",
                            "name": "listingHash",
                            "type": "uint256"
                        }
                    ],
                    "internalType": "struct DimplEscrow.Bid",
                    "name": "",
                    "type": "tuple"
                }
            ],
            "stateMutability": "view",
            "type": "function",
            "sighash": "0xc22f1781",
            "signature": "getBid(address,uint256,uint256,uint128)"
        },
        {
            "inputs": [
                {
                    "internalType": "address",
                    "name": "account",
                    "type": "address"
                },
                {
                    "internalType": "uint256",
                    "name": "deposit",
                    "type": "uint256"
                },
                {
                    "internalType": "uint256",
                    "name": "priceInPeb",
                    "type": "uint256"
                },
                {
                    "internalType": "uint128",
                    "name": "nonce",
                    "type": "uint128"
                },
                {
                    "internalType": "uint128",
                    "name": "remonstrableBlockInterval",
                    "type": "uint128"
                }
            ],
            "name": "getListing",
            "outputs": [
                {
                    "components": [
                        {
                            "internalType": "bool",
                            "name": "locked",
                            "type": "bool"
                        },
                        {
                            "internalType": "address",
                            "name": "seller",
                            "type": "address"
                        },
                        {
                            "internalType": "uint256",
                            "name": "depositInPeb",
                            "type": "uint256"
                        },
                        {
                            "internalType": "uint256",
                            "name": "priceInPeb",
                            "type": "uint256"
                        },
                        {
                            "internalType": "uint256",
                            "name": "bidHash",
                            "type": "uint256"
                        },
                        {
                            "internalType": "uint128",
                            "name": "bidSelectedBlock",
                            "type": "uint128"
                        },
                        {
                            "internalType": "uint128",
                            "name": "remonstrableBlockInterval",
                            "type": "uint128"
                        },
                        {
                            "internalType": "uint256[]",
                            "name": "bidHashes",
                            "type": "uint256[]"
                        }
                    ],
                    "internalType": "struct DimplEscrow.Listing",
                    "name": "",
                    "type": "tuple"
                }
            ],
            "stateMutability": "view",
            "type": "function",
            "sighash": "0x9b4cd789",
            "signature": "getListing(address,uint256,uint256,uint128,uint128)"
        },
        {
            "inputs": [],
            "name": "governanceTokenContract",
            "outputs": [
                {
                    "internalType": "address",
                    "name": "",
                    "type": "address"
                }
            ],
            "stateMutability": "view",
            "type": "function",
            "sighash": "0xd878fe03",
            "signature": "governanceTokenContract()"
        },
        {
            "inputs": [
                {
                    "internalType": "uint256",
                    "name": "priceInPeb",
                    "type": "uint256"
                },
                {
                    "internalType": "uint128",
                    "name": "nonce",
                    "type": "uint128"
                },
                {
                    "internalType": "uint128",
                    "name": "remonstrableBlockInterval",
                    "type": "uint128"
                }
            ],
            "name": "list",
            "outputs": [
                {
                    "internalType": "uint256",
                    "name": "",
                    "type": "uint256"
                }
            ],
            "stateMutability": "payable",
            "type": "function",
            "sighash": "0xe15e9b50",
            "signature": "list(uint256,uint128,uint128)"
        },
        {
            "inputs": [],
            "name": "listingMinDepositBasisPts",
            "outputs": [
                {
                    "internalType": "uint16",
                    "name": "",
                    "type": "uint16"
                }
            ],
            "stateMutability": "view",
            "type": "function",
            "sighash": "0x3eb57f32",
            "signature": "listingMinDepositBasisPts()"
        },
        {
            "inputs": [
                {
                    "internalType": "uint256",
                    "name": "",
                    "type": "uint256"
                }
            ],
            "name": "listings",
            "outputs": [
                {
                    "internalType": "bool",
                    "name": "locked",
                    "type": "bool"
                },
                {
                    "internalType": "address",
                    "name": "seller",
                    "type": "address"
                },
                {
                    "internalType": "uint256",
                    "name": "depositInPeb",
                    "type": "uint256"
                },
                {
                    "internalType": "uint256",
                    "name": "priceInPeb",
                    "type": "uint256"
                },
                {
                    "internalType": "uint256",
                    "name": "bidHash",
                    "type": "uint256"
                },
                {
                    "internalType": "uint128",
                    "name": "bidSelectedBlock",
                    "type": "uint128"
                },
                {
                    "internalType": "uint128",
                    "name": "remonstrableBlockInterval",
                    "type": "uint128"
                }
            ],
            "stateMutability": "view",
            "type": "function",
            "sighash": "0xde74e57b",
            "signature": "listings(uint256)"
        },
        {
            "inputs": [],
            "name": "owner",
            "outputs": [
                {
                    "internalType": "address",
                    "name": "",
                    "type": "address"
                }
            ],
            "stateMutability": "view",
            "type": "function",
            "sighash": "0x8da5cb5b",
            "signature": "owner()"
        },
        {
            "inputs": [],
            "name": "proposableLimit",
            "outputs": [
                {
                    "internalType": "uint256",
                    "name": "",
                    "type": "uint256"
                }
            ],
            "stateMutability": "view",
            "type": "function",
            "sighash": "0xd7d4669c",
            "signature": "proposableLimit()"
        },
        {
            "inputs": [],
            "name": "renounceOwnership",
            "outputs": [],
            "stateMutability": "nonpayable",
            "type": "function",
            "sighash": "0x715018a6",
            "signature": "renounceOwnership()"
        },
        {
            "inputs": [
                {
                    "internalType": "uint256",
                    "name": "listingHash",
                    "type": "uint256"
                },
                {
                    "internalType": "uint256",
                    "name": "bidHash",
                    "type": "uint256"
                }
            ],
            "name": "selectBid",
            "outputs": [
                {
                    "internalType": "uint256",
                    "name": "",
                    "type": "uint256"
                }
            ],
            "stateMutability": "nonpayable",
            "type": "function",
            "sighash": "0xd6f5f120",
            "signature": "selectBid(uint256,uint256)"
        },
        {
            "inputs": [
                {
                    "internalType": "uint16",
                    "name": "_bidMinDepositBasisPts",
                    "type": "uint16"
                }
            ],
            "name": "setBidMinDepositBasisPts",
            "outputs": [],
            "stateMutability": "nonpayable",
            "type": "function",
            "sighash": "0xc7089f74",
            "signature": "setBidMinDepositBasisPts(uint16)"
        },
        {
            "inputs": [
                {
                    "internalType": "uint16",
                    "name": "_listingMinDepositBasisPts",
                    "type": "uint16"
                }
            ],
            "name": "setListingMinDepositBasisPts",
            "outputs": [],
            "stateMutability": "nonpayable",
            "type": "function",
            "sighash": "0x78cb7599",
            "signature": "setListingMinDepositBasisPts(uint16)"
        },
        {
            "inputs": [
                {
                    "internalType": "uint256",
                    "name": "listingHash",
                    "type": "uint256"
                }
            ],
            "name": "setLocked",
            "outputs": [],
            "stateMutability": "nonpayable",
            "type": "function",
            "sighash": "0x17d35f47",
            "signature": "setLocked(uint256)"
        },
        {
            "inputs": [
                {
                    "internalType": "uint16",
                    "name": "_transactionFeeBasisPts",
                    "type": "uint16"
                }
            ],
            "name": "setTransactionFeeBasisPts",
            "outputs": [],
            "stateMutability": "nonpayable",
            "type": "function",
            "sighash": "0x85dd667f",
            "signature": "setTransactionFeeBasisPts(uint16)"
        },
        {
            "inputs": [
                {
                    "internalType": "uint256",
                    "name": "_blockToWeek",
                    "type": "uint256"
                }
            ],
            "name": "setblockToWeek",
            "outputs": [],
            "stateMutability": "nonpayable",
            "type": "function",
            "sighash": "0x746f0965",
            "signature": "setblockToWeek(uint256)"
        },
        {
            "inputs": [],
            "name": "transactionFeeBasisPts",
            "outputs": [
                {
                    "internalType": "uint256",
                    "name": "",
                    "type": "uint256"
                }
            ],
            "stateMutability": "view",
            "type": "function",
            "sighash": "0xd1425cd0",
            "signature": "transactionFeeBasisPts()"
        },
        {
            "inputs": [
                {
                    "internalType": "address",
                    "name": "newOwner",
                    "type": "address"
                }
            ],
            "name": "transferOwnership",
            "outputs": [],
            "stateMutability": "nonpayable",
            "type": "function",
            "sighash": "0xf2fde38b",
            "signature": "transferOwnership(address)"
        }
    ],
    "bytecode": "0x60806040526003805463ffffffff60a01b1916624b004b60a21b179055601e60045562093a806005556203f4806006553480156200003c57600080fd5b50604051620024d1380380620024d18339810160408190526200005f9162000111565b6200006a33620000c1565b600380546001600160a01b039092166001600160a01b03199283161790556000805260016020527fa6eef7e35abe7026729641147f7915573c7e97b47efa546f5f6e3230263bcb4980549091163317905562000143565b600080546001600160a01b038381166001600160a01b0319831681178455604051919092169283917f8be0079c531659141344cd1fd0a4f28419497f9722a3daafe3b4186f6b6457e09190a35050565b6000602082840312156200012457600080fd5b81516001600160a01b03811681146200013c57600080fd5b9392505050565b61237e80620001536000396000f3fe60806040526004361061019c5760003560e01c806385dd667f116100ec578063d1425cd01161008a578063d878fe0311610064578063d878fe031461054e578063de74e57b1461056e578063e15e9b5014610628578063f2fde38b1461063b57600080fd5b8063d1425cd014610502578063d6f5f12014610518578063d7d4669c1461053857600080fd5b80639b4cd789116100c65780639b4cd78914610430578063acf9697f1461045d578063c22f17811461047d578063c7089f74146104e257600080fd5b806385dd667f146103d25780638da5cb5b146103f25780639703ef351461041057600080fd5b80633eb57f3211610159578063629d837a11610133578063629d837a1461035d578063715018a61461037d578063746f09651461039257806378cb7599146103b257600080fd5b80633eb57f321461029d5780634423c5f1146102bf5780634cafdb151461034a57600080fd5b806317d35f47146101a15780632356dc32146101c3578063242232d1146101ec57806325fb4c9e1461021a578063305a67a81461023057806334b947d214610268575b600080fd5b3480156101ad57600080fd5b506101c16101bc366004611e9f565b61065b565b005b6101d66101d1366004611eb8565b6106cf565b6040516101e39190611f77565b60405180910390f35b3480156101f857600080fd5b5061020c610207366004611e9f565b6107b2565b6040519081526020016101e3565b34801561022657600080fd5b5061020c60055481565b34801561023c57600080fd5b5061025061024b366004611e9f565b610aff565b6040516001600160a01b0390911681526020016101e3565b34801561027457600080fd5b5060035461028a90600160b01b900461ffff1681565b60405161ffff90911681526020016101e3565b3480156102a957600080fd5b5060035461028a90600160a01b900461ffff1681565b3480156102cb57600080fd5b506103186102da366004611e9f565b600160208190526000918252604090912080549181015460028201546003909201546001600160a01b03909316926001600160801b03909116919084565b604080516001600160a01b0390951685526001600160801b0390931660208501529183015260608201526080016101e3565b61020c610358366004611fa6565b610b55565b34801561036957600080fd5b5061020c610378366004611e9f565b610d4e565b34801561038957600080fd5b506101c1610f6e565b34801561039e57600080fd5b506101c16103ad366004611e9f565b610fa4565b3480156103be57600080fd5b506101c16103cd366004611fd2565b610fd3565b3480156103de57600080fd5b506101c16103ed366004611fd2565b611031565b3480156103fe57600080fd5b506000546001600160a01b0316610250565b34801561041c57600080fd5b5061025061042b366004611e9f565b611064565b34801561043c57600080fd5b5061045061044b36600461200d565b6110c5565b6040516101e3919061209f565b34801561046957600080fd5b5061020c610478366004611e9f565b611216565b34801561048957600080fd5b5061049d610498366004612130565b6114a8565b6040516101e3919081516001600160a01b031681526020808301516001600160801b031690820152604080830151908201526060918201519181019190915260800190565b3480156104ee57600080fd5b506101c16104fd366004611fd2565b611534565b34801561050e57600080fd5b5061020c60045481565b34801561052457600080fd5b5061020c610533366004612176565b611592565b34801561054457600080fd5b5061020c60065481565b34801561055a57600080fd5b50600354610250906001600160a01b031681565b34801561057a57600080fd5b506105dd610589366004611e9f565b60026020819052600091825260409091208054600182015492820154600383015460049093015460ff8316946101009093046001600160a01b031693906001600160801b0380821691600160801b90041687565b6040805197151588526001600160a01b03909616602088015294860193909352606085019190915260808401526001600160801b0390811660a08401521660c082015260e0016101e3565b61020c610636366004612198565b61166b565b34801561064757600080fd5b506101c16106563660046121d4565b611828565b6000546001600160a01b0316331461068e5760405162461bcd60e51b8152600401610685906121ef565b60405180910390fd5b60008181526002602052604090205461010090046001600160a01b03166106b457600080fd5b6000908152600260205260409020805460ff19166001179055565b6000546060906001600160a01b031633146106fc5760405162461bcd60e51b8152600401610685906121ef565b60035460405160009182916001600160a01b039091169034906107229088908890612224565b60006040518083038185875af1925050503d806000811461075f576040519150601f19603f3d011682016040523d82523d6000602084013e610764565b606091505b50915091506107a982826040518060400160405280601881526020017f63616c6c44696d706c65455243323020726576657274656400000000000000008152506118c3565b95945050505050565b60008181526002602052604081206003015482906107cf57600080fd5b60008381526002602052604090205460ff16156107eb57600080fd5b600083815260026020908152604080832060030154835260019091529020546001600160a01b0316331461081e57600080fd5b60008381526002602081815260408084206003810180548652600180855292862080546001600160a01b0319169055888652928490528054610100600160a81b03198116825594909255918101549101546101009092046001600160a01b03169161089491839161088f919061224a565b6118fc565b6000848152600260208181526040808420600301548452600190915290912001546108c09033906118fc565b60038054600086815260026020818152604080842095860154845260018083529084208301548a8552918390529185015494909101546001600160a01b039093169391926801158e460913d00000926109189161224a565b610922919061224a565b61092c9190612262565b600554600088815260026020526040902060040154610954906001600160801b031643612284565b61096690670de0b6b3a764000061229b565b6109709190612262565b61097a919061229b565b6040516340c10f1960e01b81526001600160a01b03858116600483015260248201839052919250908316906340c10f1990604401600060405180830381600087803b1580156109c857600080fd5b505af11580156109dc573d6000803e3d6000fd5b50506040516340c10f1960e01b8152336004820152602481018490526001600160a01b03851692506340c10f199150604401600060405180830381600087803b158015610a2857600080fd5b505af1158015610a3c573d6000803e3d6000fd5b50506000805250506001602052600080516020612329833981519152546040516340c10f1960e01b81526001600160a01b03918216600482015260248101839052908316906340c10f1990604401600060405180830381600087803b158015610aa457600080fd5b505af1158015610ab8573d6000803e3d6000fd5b505050507fbd3984aa34b5ed86a6d4f470c1c4b79e124b8801762705aa1887495eb991b13086604051610aed91815260200190565b60405180910390a15093949350505050565b600081815260026020526040812060030154829015610b1d57600080fd5b60008381526002602052604090205461010090046001600160a01b03163314610b4557600080fd5b610b4e8361197e565b9392505050565b600082815260026020526040812060030154839015610b7357600080fd5b60008481526002602052604090205461010090046001600160a01b0316610b9957600080fd5b60008481526002602081905260409091200154341015610bb857600080fd5b600084815260026020819052604082200154610bd49034612284565b60008681526002602081905260409091200154909150610bf357600080fd5b60035460008681526002602081905260409091200154600160b01b90910461ffff1690610c21908390611a0b565b61ffff161015610c3057600080fd5b6000610c3e33838888611a24565b6000818152600160205260409020549091506001600160a01b031615610c6357600080fd5b6040805160808101825233808252436001600160801b038181166020808601918252858701898152606087018e815260008a815260018085528a822099518a546001600160a01b0319166001600160a01b03909116178a55945189860180546001600160801b0319169190971617909555905160028089019190915590516003909701969096558c835294855285822060050180549182018155825293902090920184905591517f156e718295cabed98b4803de269975c3a4a0b052b10d64ad296498af5144aebe92610d3d92859287918c918c906122ba565b60405180910390a195945050505050565b600080546001600160a01b03163314610d795760405162461bcd60e51b8152600401610685906121ef565b6000828152600260205260409020600301548290610d9657600080fd5b600083815260026020526040902060030154610db157600080fd5b60008381526002602052604090205461010090046001600160a01b0316610dd757600080fd5b60008381526002602052604081208054610100600160a81b03191681556003015560035460009061ffff600160a01b82048116600160b01b9092041611610e2b57600354600160b01b900461ffff16610e3a565b600354600160a01b900461ffff165b6000858152600260208190526040822001549192509061ffff831690610e639061271090612262565b610e6d919061229b565b600086815260026020526040902060010154909150811015610efb57600085815260026020526040902060030154610eca90610ea890611a7a565b600087815260026020526040902060010154610ec5908490612284565b611b00565b60008052600160205260008051602061232983398151915254610ef6906001600160a01b031682611b00565b610f31565b600085815260026020526040902060030154610f3190610f1a90611a7a565b600087815260026020526040902060010154611b00565b6040518581527f1b3883864c0b1ba1221c170465546504388dd5e452b28120749bfa97b8501d9c906020015b60405180910390a150929392505050565b6000546001600160a01b03163314610f985760405162461bcd60e51b8152600401610685906121ef565b610fa26000611b13565b565b6000546001600160a01b03163314610fce5760405162461bcd60e51b8152600401610685906121ef565b600555565b6000546001600160a01b03163314610ffd5760405162461bcd60e51b8152600401610685906121ef565b6127108161ffff161061100f57600080fd5b6003805461ffff909216600160a01b0261ffff60a01b19909216919091179055565b6000546001600160a01b0316331461105b5760405162461bcd60e51b8152600401610685906121ef565b61ffff16600455565b6000818152600160205260408120546001600160a01b0316331461108757600080fd5b60008281526001602090815260408083206003908101548452600290925290912001548214156110b657600080fd5b6110bf82611a7a565b92915050565b61112a60405180610100016040528060001515815260200160006001600160a01b0316815260200160008152602001600081526020016000815260200160006001600160801b0316815260200160006001600160801b03168152602001606081525090565b60006111398787878787611b63565b60008181526002602081815260409283902083516101008082018652825460ff811615158352046001600160a01b0316818401526001820154818601529281015460608401526003810154608084015260048101546001600160801b0380821660a0860152600160801b9091041660c08401526005810180548551818502810185019096528086529596509294909360e0860193909290919083018282801561120157602002820191906000526020600020905b8154815260200190600101908083116111ed575b50505050508152505091505095945050505050565b600081815260026020526040812060030154829061123357600080fd5b60008381526002602052604090206003015461124e57600080fd5b60008381526002602052604090205461010090046001600160a01b031661127457600080fd5b6000546001600160a01b03163314806112e5575060008381526002602052604090205460ff161580156112e5575060008381526002602052604090206004015460065443916001600160801b03808216926112d992600160801b90049091169061224a565b6112e3919061224a565b105b6112ee57600080fd5b6000838152600260208181526040808420600301805485526001835290842080546001600160a01b03191690558684529190525560035460009061ffff600160a01b82048116600160b01b909204161161135557600354600160b01b900461ffff16611364565b600354600160a01b900461ffff165b6000858152600260208190526040822001549192509061ffff83169061138d9061271090612262565b611397919061229b565b60008681526002602081815260408084206003015484526001909152909120015490915081101561143b5761140a6113ce8661197e565b60008781526002602081815260408084208084015460039091015485526001909252909220015484916114009161224a565b610ec59190612284565b60008052600160205260008051602061232983398151915254611436906001600160a01b031682611b00565b611478565b6114786114478661197e565b600087815260026020818152604080842080840154600390910154855260019092529092200154610ec5919061224a565b6040518581527fa476146fe4bbf799b994db2d50a53939472e1f3a4c54d3d5187b44eb23d6951990602001610f5d565b6040805160808101825260008082526020820181905291810182905260608101829052906114d886868686611a24565b600090815260016020818152604092839020835160808101855281546001600160a01b03168152928101546001600160801b03169183019190915260028101549282019290925260039091015460608201529695505050505050565b6000546001600160a01b0316331461155e5760405162461bcd60e51b8152600401610685906121ef565b6127108161ffff161061157057600080fd5b6003805461ffff909216600160b01b0261ffff60b01b19909216919091179055565b6000828152600260205260408120600301548390156115b057600080fd5b60008481526002602052604090205461010090046001600160a01b031633146115d857600080fd5b60008381526001602052604090206003015484146115f557600080fd5b60008481526002602052604090206003810184905560040180546001600160801b031916436001600160801b03161790556116308484611bc2565b6040518381527f8d8b1437eb027177341f053ad111a3528bb841f889cb10ae326e8ec1fff6dacb9060200160405180910390a1509092915050565b600080841161167957600080fd5b600354600160a01b900461ffff166116913486611a0b565b61ffff1610156116a057600080fd5b60006116af3334878787611b63565b60008181526002602052604090205490915061010090046001600160a01b0316156116d957600080fd5b60008181526002602081905260409091200154156116f657600080fd5b604080516101008082018352600080835233602080850191825234858701908152606086018c81526080870185815260a088018681526001600160801b038d811660c08b019081528b518981528088018d5260e08c019081528d8a5260028089529c9099208b51815499516001600160a81b0319909a16901515610100600160a81b031916176001600160a01b03909916909a02979097178955935160018901559151988701989098559651600386015595519151918616600160801b9290961691909102949094176004830155518051929391926117db9260058501920190611e3f565b509050507f7d6c9e442f651c85a9c4c3424d8dec264d2d05104c33e742511dc72218b85df2813334888789604051611818969594939291906122ba565b60405180910390a1949350505050565b6000546001600160a01b031633146118525760405162461bcd60e51b8152600401610685906121ef565b6001600160a01b0381166118b75760405162461bcd60e51b815260206004820152602660248201527f4f776e61626c653a206e6577206f776e657220697320746865207a65726f206160448201526564647265737360d01b6064820152608401610685565b6118c081611b13565b50565b606083156118d2575081610b4e565b8251156118e25782518084602001fd5b8160405162461bcd60e51b81526004016106859190611f77565b61193560045461271061190f9190612284565b61191b61271084612262565b611925919061229b565b6001600160a01b03841690611c91565b60045461197a9061194861271084612262565b611952919061229b565b600080526001602052600080516020612329833981519152546001600160a01b031690611c91565b5050565b60008181526002602052604081208054610100600160a81b0319811690915561010090046001600160a01b03166119b483611daf565b6000838152600260205260409020600101546119d1908290611b00565b6040518381527f5d7a33421ffa4bc07eb8929c5ace6393d3aa5ec3775e4e2f442527876b7dbe88906020015b60405180910390a192915050565b600081611a1a8461271061229b565b610b4e9190612262565b604080516001600160a01b0386166020820152908101849052606081018390526001600160801b038216608082015260009060a00160408051601f19818403018152919052805160209091012095945050505050565b600081815260016020818152604080842080546001600160a01b0319811682556003820154865260028085529286208301548787529490935201546001600160a01b0390911691611ad0918391610ec59161224a565b6040518381527ff72c9cb76aa633bc9310fa98738d474339fdf2f23dfac70ccbd65e593f6654df906020016119fd565b61197a6001600160a01b03831682611c91565b600080546001600160a01b038381166001600160a01b0319831681178455604051919092169283917f8be0079c531659141344cd1fd0a4f28419497f9722a3daafe3b4186f6b6457e09190a35050565b604080516001600160a01b0387166020820152908101859052606081018490526001600160801b038084166080830152821660a082015260009060c00160408051601f1981840301815291905280516020909101209695505050505050565b6000828152600260205260408120600501905b8154811015611c8b5782828281548110611bf157611bf16122f7565b9060005260206000200154141580611c4d575060006001600160a01b031660016000848481548110611c2557611c256122f7565b600091825260208083209091015483528201929092526040019020546001600160a01b031614155b15611c7957611c77828281548110611c6757611c676122f7565b9060005260206000200154611a7a565b505b80611c838161230d565b915050611bd5565b50505050565b80471015611ce15760405162461bcd60e51b815260206004820152601d60248201527f416464726573733a20696e73756666696369656e742062616c616e63650000006044820152606401610685565b6000826001600160a01b03168260405160006040518083038185875af1925050503d8060008114611d2e576040519150601f19603f3d011682016040523d82523d6000602084013e611d33565b606091505b5050905080611daa5760405162461bcd60e51b815260206004820152603a60248201527f416464726573733a20756e61626c6520746f2073656e642076616c75652c207260448201527f6563697069656e74206d617920686176652072657665727465640000000000006064820152608401610685565b505050565b6000818152600260205260408120600501905b8154811015611daa5760006001600160a01b031660016000848481548110611dec57611dec6122f7565b600091825260208083209091015483528201929092526040019020546001600160a01b031614611e2d57611e2b828281548110611c6757611c676122f7565b505b80611e378161230d565b915050611dc2565b828054828255906000526020600020908101928215611e7a579160200282015b82811115611e7a578251825591602001919060010190611e5f565b50611e86929150611e8a565b5090565b5b80821115611e865760008155600101611e8b565b600060208284031215611eb157600080fd5b5035919050565b60008060208385031215611ecb57600080fd5b823567ffffffffffffffff80821115611ee357600080fd5b818501915085601f830112611ef757600080fd5b813581811115611f0657600080fd5b866020828501011115611f1857600080fd5b60209290920196919550909350505050565b6000815180845260005b81811015611f5057602081850181015186830182015201611f34565b81811115611f62576000602083870101525b50601f01601f19169290920160200192915050565b602081526000610b4e6020830184611f2a565b80356001600160801b0381168114611fa157600080fd5b919050565b60008060408385031215611fb957600080fd5b82359150611fc960208401611f8a565b90509250929050565b600060208284031215611fe457600080fd5b813561ffff81168114610b4e57600080fd5b80356001600160a01b0381168114611fa157600080fd5b600080600080600060a0868803121561202557600080fd5b61202e86611ff6565b9450602086013593506040860135925061204a60608701611f8a565b915061205860808701611f8a565b90509295509295909350565b600081518084526020808501945080840160005b8381101561209457815187529582019590820190600101612078565b509495945050505050565b6020815281511515602082015260018060a01b0360208301511660408201526040820151606082015260608201516080820152608082015160a0820152600060a08301516120f860c08401826001600160801b03169052565b5060c08301516001600160801b03811660e08401525060e083015161010083810152612128610120840182612064565b949350505050565b6000806000806080858703121561214657600080fd5b61214f85611ff6565b9350602085013592506040850135915061216b60608601611f8a565b905092959194509250565b6000806040838503121561218957600080fd5b50508035926020909101359150565b6000806000606084860312156121ad57600080fd5b833592506121bd60208501611f8a565b91506121cb60408501611f8a565b90509250925092565b6000602082840312156121e657600080fd5b610b4e82611ff6565b6020808252818101527f4f776e61626c653a2063616c6c6572206973206e6f7420746865206f776e6572604082015260600190565b8183823760009101908152919050565b634e487b7160e01b600052601160045260246000fd5b6000821982111561225d5761225d612234565b500190565b60008261227f57634e487b7160e01b600052601260045260246000fd5b500490565b60008282101561229657612296612234565b500390565b60008160001904831182151516156122b5576122b5612234565b500290565b9586526001600160a01b03949094166020860152604085019290925260608401526001600160801b0390811660808401521660a082015260c00190565b634e487b7160e01b600052603260045260246000fd5b600060001982141561232157612321612234565b506001019056fea6eef7e35abe7026729641147f7915573c7e97b47efa546f5f6e3230263bcb49a264697066735822122095cda60506f3fa220c71302e908079f7d6488c11d3d085fbddbece55a2a0c14e64736f6c634300080c0033",
    "linkReferences": {},
    "deployedLinkReferences": {}
}