{
    "_format": "hh-sol-artifact-1",
    "contractName": "DimplEscrow",
    "sourceName": "contracts/DimplEscrow.sol",
    "abi": [
        {
            "inputs": [
                {
                    "internalType": "address",
                    "name": "_governanceTokenContract",
                    "type": "address"
                }
            ],
            "stateMutability": "nonpayable",
            "type": "constructor",
            "signature": "contructor(address)"
        },
        {
            "anonymous": false,
            "inputs": [
                {
                    "indexed": false,
                    "internalType": "uint256",
                    "name": "bidHash",
                    "type": "uint256"
                }
            ],
            "name": "BidCanceled",
            "type": "event",
            "topic": "0xf72c9cb76aa633bc9310fa98738d474339fdf2f23dfac70ccbd65e593f6654df",
            "signature": "BidCanceled(uint256)"
        },
        {
            "anonymous": false,
            "inputs": [
                {
                    "indexed": false,
                    "internalType": "uint256",
                    "name": "bidHash",
                    "type": "uint256"
                },
                {
                    "indexed": false,
                    "internalType": "address",
                    "name": "buyer",
                    "type": "address"
                },
                {
                    "indexed": false,
                    "internalType": "uint256",
                    "name": "depositInPeb",
                    "type": "uint256"
                },
                {
                    "indexed": false,
                    "internalType": "uint256",
                    "name": "listingHash",
                    "type": "uint256"
                },
                {
                    "indexed": false,
                    "internalType": "uint128",
                    "name": "nonce",
                    "type": "uint128"
                }
            ],
            "name": "BidCreated",
            "type": "event",
            "topic": "0xecd7b28114d7834073f70c070653269c36e058510f6b3fc126a9b5fddacff23b",
            "signature": "BidCreated(uint256,address,uint256,uint256,uint128)"
        },
        {
            "anonymous": false,
            "inputs": [
                {
                    "indexed": false,
                    "internalType": "uint256",
                    "name": "bidHash",
                    "type": "uint256"
                }
            ],
            "name": "BidSelected",
            "type": "event",
            "topic": "0x8d8b1437eb027177341f053ad111a3528bb841f889cb10ae326e8ec1fff6dacb",
            "signature": "BidSelected(uint256)"
        },
        {
            "anonymous": false,
            "inputs": [
                {
                    "indexed": false,
                    "internalType": "uint256",
                    "name": "listingHash",
                    "type": "uint256"
                }
            ],
            "name": "ListingCanceled",
            "type": "event",
            "topic": "0x5d7a33421ffa4bc07eb8929c5ace6393d3aa5ec3775e4e2f442527876b7dbe88",
            "signature": "ListingCanceled(uint256)"
        },
        {
            "anonymous": false,
            "inputs": [
                {
                    "indexed": false,
                    "internalType": "uint256",
                    "name": "listingHash",
                    "type": "uint256"
                },
                {
                    "indexed": false,
                    "internalType": "address",
                    "name": "seller",
                    "type": "address"
                },
                {
                    "indexed": false,
                    "internalType": "uint256",
                    "name": "depositInPeb",
                    "type": "uint256"
                },
                {
                    "indexed": false,
                    "internalType": "uint256",
                    "name": "priceInPeb",
                    "type": "uint256"
                },
                {
                    "indexed": false,
                    "internalType": "uint128",
                    "name": "remonstrableBlockInterval",
                    "type": "uint128"
                },
                {
                    "indexed": false,
                    "internalType": "uint128",
                    "name": "nonce",
                    "type": "uint128"
                }
            ],
            "name": "ListingCreated",
            "type": "event",
            "topic": "0x7d6c9e442f651c85a9c4c3424d8dec264d2d05104c33e742511dc72218b85df2",
            "signature": "ListingCreated(uint256,address,uint256,uint256,uint128,uint128)"
        },
        {
            "anonymous": false,
            "inputs": [
                {
                    "indexed": true,
                    "internalType": "address",
                    "name": "previousOwner",
                    "type": "address"
                },
                {
                    "indexed": true,
                    "internalType": "address",
                    "name": "newOwner",
                    "type": "address"
                }
            ],
            "name": "OwnershipTransferred",
            "type": "event",
            "topic": "0x8be0079c531659141344cd1fd0a4f28419497f9722a3daafe3b4186f6b6457e0",
            "signature": "OwnershipTransferred(address,address)"
        },
        {
            "anonymous": false,
            "inputs": [
                {
                    "indexed": false,
                    "internalType": "uint256",
                    "name": "listingHash",
                    "type": "uint256"
                }
            ],
            "name": "TransactionApproved",
            "type": "event",
            "topic": "0xbd3984aa34b5ed86a6d4f470c1c4b79e124b8801762705aa1887495eb991b130",
            "signature": "TransactionApproved(uint256)"
        },
        {
            "anonymous": false,
            "inputs": [
                {
                    "indexed": false,
                    "internalType": "uint256",
                    "name": "listingHash",
                    "type": "uint256"
                }
            ],
            "name": "TransactionForceApproved",
            "type": "event",
            "topic": "0xa476146fe4bbf799b994db2d50a53939472e1f3a4c54d3d5187b44eb23d69519",
            "signature": "TransactionForceApproved(uint256)"
        },
        {
            "anonymous": false,
            "inputs": [
                {
                    "indexed": false,
                    "internalType": "uint256",
                    "name": "listingHash",
                    "type": "uint256"
                }
            ],
            "name": "TransactionForceCanceled",
            "type": "event",
            "topic": "0x1b3883864c0b1ba1221c170465546504388dd5e452b28120749bfa97b8501d9c",
            "signature": "TransactionForceCanceled(uint256)"
        },
        {
            "inputs": [
                {
                    "internalType": "uint256",
                    "name": "listingHash",
                    "type": "uint256"
                }
            ],
            "name": "approveTransaction",
            "outputs": [
                {
                    "internalType": "uint256",
                    "name": "",
                    "type": "uint256"
                }
            ],
            "stateMutability": "nonpayable",
            "type": "function",
            "sighash": "0x242232d1",
            "signature": "approveTransaction(uint256)"
        },
        {
            "inputs": [
                {
                    "internalType": "uint256",
                    "name": "depositInPeb",
                    "type": "uint256"
                },
                {
                    "internalType": "uint256",
                    "name": "listingHash",
                    "type": "uint256"
                },
                {
                    "internalType": "uint128",
                    "name": "nonce",
                    "type": "uint128"
                }
            ],
            "name": "bid",
            "outputs": [
                {
                    "internalType": "uint256",
                    "name": "",
                    "type": "uint256"
                }
            ],
            "stateMutability": "payable",
            "type": "function",
            "sighash": "0xf7c967e7",
            "signature": "bid(uint256,uint256,uint128)"
        },
        {
            "inputs": [],
            "name": "bidMinDepositBasisPts",
            "outputs": [
                {
                    "internalType": "uint16",
                    "name": "",
                    "type": "uint16"
                }
            ],
            "stateMutability": "view",
            "type": "function",
            "sighash": "0x34b947d2",
            "signature": "bidMinDepositBasisPts()"
        },
        {
            "inputs": [
                {
                    "internalType": "uint256",
                    "name": "",
                    "type": "uint256"
                }
            ],
            "name": "bids",
            "outputs": [
                {
                    "internalType": "address",
                    "name": "buyer",
                    "type": "address"
                },
                {
                    "internalType": "uint128",
                    "name": "bidCreatedBlock",
                    "type": "uint128"
                },
                {
                    "internalType": "uint256",
                    "name": "depositInPeb",
                    "type": "uint256"
                },
                {
                    "internalType": "uint256",
                    "name": "listingHash",
                    "type": "uint256"
                }
            ],
            "stateMutability": "view",
            "type": "function",
            "sighash": "0x4423c5f1",
            "signature": "bids(uint256)"
        },
        {
            "inputs": [],
            "name": "blockToWeek",
            "outputs": [
                {
                    "internalType": "uint256",
                    "name": "",
                    "type": "uint256"
                }
            ],
            "stateMutability": "view",
            "type": "function",
            "sighash": "0x25fb4c9e",
            "signature": "blockToWeek()"
        },
        {
            "inputs": [
                {
                    "internalType": "bytes",
                    "name": "_calldata",
                    "type": "bytes"
                }
            ],
            "name": "callDimpleERC20",
            "outputs": [
                {
                    "internalType": "bytes",
                    "name": "",
                    "type": "bytes"
                }
            ],
            "stateMutability": "payable",
            "type": "function",
            "sighash": "0x2356dc32",
            "signature": "callDimpleERC20(bytes)"
        },
        {
            "inputs": [
                {
                    "internalType": "uint256",
                    "name": "bidHash",
                    "type": "uint256"
                }
            ],
            "name": "cancelBid",
            "outputs": [
                {
                    "internalType": "address",
                    "name": "",
                    "type": "address"
                }
            ],
            "stateMutability": "nonpayable",
            "type": "function",
            "sighash": "0x9703ef35",
            "signature": "cancelBid(uint256)"
        },
        {
            "inputs": [
                {
                    "internalType": "uint256",
                    "name": "listingHash",
                    "type": "uint256"
                }
            ],
            "name": "cancelListing",
            "outputs": [
                {
                    "internalType": "address",
                    "name": "",
                    "type": "address"
                }
            ],
            "stateMutability": "nonpayable",
            "type": "function",
            "sighash": "0x305a67a8",
            "signature": "cancelListing(uint256)"
        },
        {
            "inputs": [
                {
                    "internalType": "uint256",
                    "name": "listingHash",
                    "type": "uint256"
                }
            ],
            "name": "forceApproveTransaction",
            "outputs": [
                {
                    "internalType": "uint256",
                    "name": "",
                    "type": "uint256"
                }
            ],
            "stateMutability": "nonpayable",
            "type": "function",
            "sighash": "0xacf9697f",
            "signature": "forceApproveTransaction(uint256)"
        },
        {
            "inputs": [
                {
                    "internalType": "uint256",
                    "name": "listingHash",
                    "type": "uint256"
                }
            ],
            "name": "forceCancelTransaction",
            "outputs": [
                {
                    "internalType": "uint256",
                    "name": "",
                    "type": "uint256"
                }
            ],
            "stateMutability": "nonpayable",
            "type": "function",
            "sighash": "0x629d837a",
            "signature": "forceCancelTransaction(uint256)"
        },
        {
            "inputs": [],
            "name": "governanceTokenContract",
            "outputs": [
                {
                    "internalType": "address",
                    "name": "",
                    "type": "address"
                }
            ],
            "stateMutability": "view",
            "type": "function",
            "sighash": "0xd878fe03",
            "signature": "governanceTokenContract()"
        },
        {
            "inputs": [
                {
                    "internalType": "uint256",
                    "name": "priceInPeb",
                    "type": "uint256"
                },
                {
                    "internalType": "uint128",
                    "name": "nonce",
                    "type": "uint128"
                },
                {
                    "internalType": "uint128",
                    "name": "remonstrableBlockInterval",
                    "type": "uint128"
                }
            ],
            "name": "list",
            "outputs": [
                {
                    "internalType": "uint256",
                    "name": "",
                    "type": "uint256"
                }
            ],
            "stateMutability": "payable",
            "type": "function",
            "sighash": "0xe15e9b50",
            "signature": "list(uint256,uint128,uint128)"
        },
        {
            "inputs": [],
            "name": "listingMinDepositBasisPts",
            "outputs": [
                {
                    "internalType": "uint16",
                    "name": "",
                    "type": "uint16"
                }
            ],
            "stateMutability": "view",
            "type": "function",
            "sighash": "0x3eb57f32",
            "signature": "listingMinDepositBasisPts()"
        },
        {
            "inputs": [
                {
                    "internalType": "uint256",
                    "name": "",
                    "type": "uint256"
                }
            ],
            "name": "listings",
            "outputs": [
                {
                    "internalType": "address",
                    "name": "seller",
                    "type": "address"
                },
                {
                    "internalType": "uint256",
                    "name": "depositInPeb",
                    "type": "uint256"
                },
                {
                    "internalType": "uint256",
                    "name": "priceInPeb",
                    "type": "uint256"
                },
                {
                    "internalType": "uint256",
                    "name": "bidHash",
                    "type": "uint256"
                },
                {
                    "internalType": "uint128",
                    "name": "bidSelectedBlock",
                    "type": "uint128"
                },
                {
                    "internalType": "uint128",
                    "name": "remonstrableBlockInterval",
                    "type": "uint128"
                }
            ],
            "stateMutability": "view",
            "type": "function",
            "sighash": "0xde74e57b",
            "signature": "listings(uint256)"
        },
        {
            "inputs": [],
            "name": "owner",
            "outputs": [
                {
                    "internalType": "address",
                    "name": "",
                    "type": "address"
                }
            ],
            "stateMutability": "view",
            "type": "function",
            "sighash": "0x8da5cb5b",
            "signature": "owner()"
        },
        {
            "inputs": [],
            "name": "renounceOwnership",
            "outputs": [],
            "stateMutability": "nonpayable",
            "type": "function",
            "sighash": "0x715018a6",
            "signature": "renounceOwnership()"
        },
        {
            "inputs": [
                {
                    "internalType": "uint256",
                    "name": "listingHash",
                    "type": "uint256"
                },
                {
                    "internalType": "uint256",
                    "name": "bidHash",
                    "type": "uint256"
                }
            ],
            "name": "selectBid",
            "outputs": [
                {
                    "internalType": "uint256",
                    "name": "",
                    "type": "uint256"
                }
            ],
            "stateMutability": "nonpayable",
            "type": "function",
            "sighash": "0xd6f5f120",
            "signature": "selectBid(uint256,uint256)"
        },
        {
            "inputs": [
                {
                    "internalType": "uint16",
                    "name": "_bidMinDepositBasisPts",
                    "type": "uint16"
                }
            ],
            "name": "setBidMinDepositBasisPts",
            "outputs": [],
            "stateMutability": "nonpayable",
            "type": "function",
            "sighash": "0xc7089f74",
            "signature": "setBidMinDepositBasisPts(uint16)"
        },
        {
            "inputs": [
                {
                    "internalType": "uint16",
                    "name": "_listingMinDepositBasisPts",
                    "type": "uint16"
                }
            ],
            "name": "setListingMinDepositBasisPts",
            "outputs": [],
            "stateMutability": "nonpayable",
            "type": "function",
            "sighash": "0x78cb7599",
            "signature": "setListingMinDepositBasisPts(uint16)"
        },
        {
            "inputs": [
                {
                    "internalType": "uint16",
                    "name": "_transactionFeeBasisPts",
                    "type": "uint16"
                }
            ],
            "name": "setTransactionFeeBasisPts",
            "outputs": [],
            "stateMutability": "nonpayable",
            "type": "function",
            "sighash": "0x85dd667f",
            "signature": "setTransactionFeeBasisPts(uint16)"
        },
        {
            "inputs": [
                {
                    "internalType": "uint256",
                    "name": "_blockToWeek",
                    "type": "uint256"
                }
            ],
            "name": "setblockToWeek",
            "outputs": [],
            "stateMutability": "nonpayable",
            "type": "function",
            "sighash": "0x746f0965",
            "signature": "setblockToWeek(uint256)"
        },
        {
            "inputs": [],
            "name": "transactionFeeBasisPts",
            "outputs": [
                {
                    "internalType": "uint256",
                    "name": "",
                    "type": "uint256"
                }
            ],
            "stateMutability": "view",
            "type": "function",
            "sighash": "0xd1425cd0",
            "signature": "transactionFeeBasisPts()"
        },
        {
            "inputs": [
                {
                    "internalType": "address",
                    "name": "newOwner",
                    "type": "address"
                }
            ],
            "name": "transferOwnership",
            "outputs": [],
            "stateMutability": "nonpayable",
            "type": "function",
            "sighash": "0xf2fde38b",
            "signature": "transferOwnership(address)"
        }
    ],
    "bytecode": "0x60806040526003805463ffffffff60a01b1916624b004b60a21b179055601e60045562093a806005553480156200003557600080fd5b5060405162001e9c38038062001e9c83398101604081905262000058916200010a565b6200006333620000ba565b600380546001600160a01b039092166001600160a01b03199283161790556000805260016020527fa6eef7e35abe7026729641147f7915573c7e97b47efa546f5f6e3230263bcb498054909116331790556200013c565b600080546001600160a01b038381166001600160a01b0319831681178455604051919092169283917f8be0079c531659141344cd1fd0a4f28419497f9722a3daafe3b4186f6b6457e09190a35050565b6000602082840312156200011d57600080fd5b81516001600160a01b03811681146200013557600080fd5b9392505050565b611d50806200014c6000396000f3fe6080604052600436106101405760003560e01c806385dd667f116100b6578063d6f5f1201161006f578063d6f5f120146103f7578063d878fe0314610417578063de74e57b14610437578063e15e9b50146104e2578063f2fde38b146104f5578063f7c967e71461051557600080fd5b806385dd667f146103435780638da5cb5b146103635780639703ef3514610381578063acf9697f146103a1578063c7089f74146103c1578063d1425cd0146103e157600080fd5b80633eb57f32116101085780633eb57f321461021f5780634423c5f114610241578063629d837a146102cc578063715018a6146102ec578063746f09651461030357806378cb75991461032357600080fd5b80632356dc3214610145578063242232d11461016e57806325fb4c9e1461019c578063305a67a8146101b257806334b947d2146101ea575b600080fd5b610158610153366004611a20565b610528565b6040516101659190611adf565b60405180910390f35b34801561017a57600080fd5b5061018e610189366004611af2565b610614565b604051908152602001610165565b3480156101a857600080fd5b5061018e60055481565b3480156101be57600080fd5b506101d26101cd366004611af2565b61093d565b6040516001600160a01b039091168152602001610165565b3480156101f657600080fd5b5060035461020c90600160b01b900461ffff1681565b60405161ffff9091168152602001610165565b34801561022b57600080fd5b5060035461020c90600160a01b900461ffff1681565b34801561024d57600080fd5b5061029a61025c366004611af2565b600160208190526000918252604090912080549181015460028201546003909201546001600160a01b03909316926001600160801b03909116919084565b604080516001600160a01b0390951685526001600160801b039093166020850152918301526060820152608001610165565b3480156102d857600080fd5b5061018e6102e7366004611af2565b61098e565b3480156102f857600080fd5b50610301610b8d565b005b34801561030f57600080fd5b5061030161031e366004611af2565b610bc3565b34801561032f57600080fd5b5061030161033e366004611b0b565b610bf2565b34801561034f57600080fd5b5061030161035e366004611b0b565b610c50565b34801561036f57600080fd5b506000546001600160a01b03166101d2565b34801561038d57600080fd5b506101d261039c366004611af2565b610c83565b3480156103ad57600080fd5b5061018e6103bc366004611af2565b610ce4565b3480156103cd57600080fd5b506103016103dc366004611b0b565b610f07565b3480156103ed57600080fd5b5061018e60045481565b34801561040357600080fd5b5061018e610412366004611b2f565b610f65565b34801561042357600080fd5b506003546101d2906001600160a01b031681565b34801561044357600080fd5b5061049f610452366004611af2565b6002602081905260009182526040909120805460018201549282015460038301546004909301546001600160a01b03909216939290916001600160801b0380821691600160801b90041686565b604080516001600160a01b03909716875260208701959095529385019290925260608401526001600160801b0390811660808401521660a082015260c001610165565b61018e6104f0366004611b6d565b611039565b34801561050157600080fd5b50610301610510366004611ba9565b61124c565b61018e610523366004611bd2565b6112e7565b6000546060906001600160a01b0316331461055e5760405162461bcd60e51b815260040161055590611bfe565b60405180910390fd5b60035460405160009182916001600160a01b039091169034906105849088908890611c33565b60006040518083038185875af1925050503d80600081146105c1576040519150601f19603f3d011682016040523d82523d6000602084013e6105c6565b606091505b509150915061060b82826040518060400160405280601881526020017f63616c6c44696d706c65455243323020726576657274656400000000000000008152506114ff565b95945050505050565b600081815260026020526040812060030154829061063157600080fd5b600083815260026020908152604080832060030154835260019091529020546001600160a01b0316331461066457600080fd5b60008381526002602081815260408084206003810180548652600180855292862080546001600160a01b03199081169091558987529385905281549384168255949094559183015491909201546001600160a01b03909216916106d29183916106cd9190611c59565b611538565b6000848152600260208181526040808420600301548452600190915290912001546106fe903390611538565b60038054600086815260026020818152604080842095860154845260018083529084208301548a8552918390529185015494909101546001600160a01b039093169391926801158e460913d000009261075691611c59565b6107609190611c59565b61076a9190611c71565b600554600088815260026020526040902060040154610792906001600160801b031643611c93565b6107a490670de0b6b3a7640000611caa565b6107ae9190611c71565b6107b89190611caa565b6040516340c10f1960e01b81526001600160a01b03858116600483015260248201839052919250908316906340c10f1990604401600060405180830381600087803b15801561080657600080fd5b505af115801561081a573d6000803e3d6000fd5b50506040516340c10f1960e01b8152336004820152602481018490526001600160a01b03851692506340c10f199150604401600060405180830381600087803b15801561086657600080fd5b505af115801561087a573d6000803e3d6000fd5b50506000805250506001602052600080516020611cfb833981519152546040516340c10f1960e01b81526001600160a01b03918216600482015260248101839052908316906340c10f1990604401600060405180830381600087803b1580156108e257600080fd5b505af11580156108f6573d6000803e3d6000fd5b505050507fbd3984aa34b5ed86a6d4f470c1c4b79e124b8801762705aa1887495eb991b1308660405161092b91815260200190565b60405180910390a15093949350505050565b60008181526002602052604081206003015482901561095b57600080fd5b6000838152600260205260409020546001600160a01b0316331461097e57600080fd5b610987836115ba565b9392505050565b600080546001600160a01b031633146109b95760405162461bcd60e51b815260040161055590611bfe565b60008281526002602052604090206003015482906109d657600080fd5b6000838152600260205260409020546001600160a01b03166109f757600080fd5b600083815260026020526040812080546001600160a01b03191681556003015560035460009061ffff600160a01b82048116600160b01b9092041611610a4a57600354600160b01b900461ffff16610a59565b600354600160a01b900461ffff165b6000858152600260208190526040822001549192509061ffff831690610a829061271090611c71565b610a8c9190611caa565b600086815260026020526040902060010154909150811015610b1a57600085815260026020526040902060030154610ae990610ac790611641565b600087815260026020526040902060010154610ae4908490611c93565b6116c7565b600080526001602052600080516020611cfb83398151915254610b15906001600160a01b0316826116c7565b610b50565b600085815260026020526040902060030154610b5090610b3990611641565b6000878152600260205260409020600101546116c7565b6040518581527f1b3883864c0b1ba1221c170465546504388dd5e452b28120749bfa97b8501d9c906020015b60405180910390a150929392505050565b6000546001600160a01b03163314610bb75760405162461bcd60e51b815260040161055590611bfe565b610bc160006116da565b565b6000546001600160a01b03163314610bed5760405162461bcd60e51b815260040161055590611bfe565b600555565b6000546001600160a01b03163314610c1c5760405162461bcd60e51b815260040161055590611bfe565b6127108161ffff1610610c2e57600080fd5b6003805461ffff909216600160a01b0261ffff60a01b19909216919091179055565b6000546001600160a01b03163314610c7a5760405162461bcd60e51b815260040161055590611bfe565b61ffff16600455565b6000818152600160205260408120546001600160a01b03163314610ca657600080fd5b6000828152600160209081526040808320600390810154845260029092529091200154821415610cd557600080fd5b610cde82611641565b92915050565b600080546001600160a01b03163314610d0f5760405162461bcd60e51b815260040161055590611bfe565b6000828152600260205260409020600301548290610d2c57600080fd5b6000838152600260205260409020546001600160a01b0316610d4d57600080fd5b6000838152600260208181526040808420600301805485526001835290842080546001600160a01b03191690558684529190525560035460009061ffff600160a01b82048116600160b01b9092041611610db457600354600160b01b900461ffff16610dc3565b600354600160a01b900461ffff165b6000858152600260208190526040822001549192509061ffff831690610dec9061271090611c71565b610df69190611caa565b600086815260026020818152604080842060030154845260019091529091200154909150811015610e9a57610e69610e2d866115ba565b6000878152600260208181526040808420808401546003909101548552600190925290922001548491610e5f91611c59565b610ae49190611c93565b600080526001602052600080516020611cfb83398151915254610e95906001600160a01b0316826116c7565b610ed7565b610ed7610ea6866115ba565b600087815260026020818152604080842080840154600390910154855260019092529092200154610ae49190611c59565b6040518581527fa476146fe4bbf799b994db2d50a53939472e1f3a4c54d3d5187b44eb23d6951990602001610b7c565b6000546001600160a01b03163314610f315760405162461bcd60e51b815260040161055590611bfe565b6127108161ffff1610610f4357600080fd5b6003805461ffff909216600160b01b0261ffff60b01b19909216919091179055565b600082815260026020526040812060030154839015610f8357600080fd5b6000848152600260205260409020546001600160a01b03163314610fa657600080fd5b6000838152600160205260409020600301548414610fc357600080fd5b60008481526002602052604090206003810184905560040180546001600160801b031916436001600160801b0316179055610ffe848461172a565b6040518381527f8d8b1437eb027177341f053ad111a3528bb841f889cb10ae326e8ec1fff6dacb9060200160405180910390a1509092915050565b600080841161104757600080fd5b600354600160a01b900461ffff1661105f34866117f9565b61ffff16101561106e57600080fd5b60408051336020808301919091523482840152606082018790526001600160801b0386166080808401919091528351808403909101815260a0909201835281519181019190912060008181526002909252919020546001600160a01b0316156110d657600080fd5b60008181526002602081905260409091200154156110f357600080fd5b6040805160e081018252338152346020820152908101869052600060608201819052608082018190526001600160801b03851660a083015260c0820190604051908082528060200260200182016040528015611159578160200160208202803683370190505b509052600082815260026020818152604092839020845181546001600160a01b039091166001600160a01b0319909116178155848201516001820155928401519183019190915560608301516003830155608083015160a08401516001600160801b03908116600160801b02911617600483015560c083015180516111e492600585019201906119c0565b5050604080518381523360208201523481830152606081018890526001600160801b038681166080830152871660a082015290517f7d6c9e442f651c85a9c4c3424d8dec264d2d05104c33e742511dc72218b85df292509081900360c00190a1949350505050565b6000546001600160a01b031633146112765760405162461bcd60e51b815260040161055590611bfe565b6001600160a01b0381166112db5760405162461bcd60e51b815260206004820152602660248201527f4f776e61626c653a206e6577206f776e657220697320746865207a65726f206160448201526564647265737360d01b6064820152608401610555565b6112e4816116da565b50565b60008281526002602052604081206003015483901561130557600080fd5b6000848152600260205260409020546001600160a01b031661132657600080fd5b600084815260026020819052604090912001546113439086611c59565b34101561134f57600080fd5b6000848152600260208190526040909120015461136b57600080fd5b60035460008581526002602081905260409091200154600160b01b90910461ffff16906113999087906117f9565b61ffff1610156113a857600080fd5b60408051336020808301919091528183018890526060808301889052835180840390910181526080909201835281519181019190912060008181526001909252919020546001600160a01b0316156113ff57600080fd5b604080516080808201835233808352436001600160801b0390811660208086019182528587018d815260608088018e815260008b815260018086528b82209a518b546001600160a01b0319166001600160a01b03909116178b5595518a870180546001600160801b03191691891691909117905592516002808b019190915590516003909901989098558d82529682528781206005018054938401815581528190209091018790558551878152908101929092529381018a9052918201889052918616918101919091527fecd7b28114d7834073f70c070653269c36e058510f6b3fc126a9b5fddacff23b9060a00160405180910390a195945050505050565b6060831561150e575081610987565b82511561151e5782518084602001fd5b8160405162461bcd60e51b81526004016105559190611adf565b61157160045461271061154b9190611c93565b61155761271084611c71565b6115619190611caa565b6001600160a01b03841690611812565b6004546115b69061158461271084611c71565b61158e9190611caa565b600080526001602052600080516020611cfb833981519152546001600160a01b031690611812565b5050565b600081815260026020526040812080546001600160a01b031981169091556001600160a01b03166115ea83611930565b6000838152600260205260409020600101546116079082906116c7565b6040518381527f5d7a33421ffa4bc07eb8929c5ace6393d3aa5ec3775e4e2f442527876b7dbe88906020015b60405180910390a192915050565b600081815260016020818152604080842080546001600160a01b0319811682556003820154865260028085529286208301548787529490935201546001600160a01b0390911691611697918391610ae491611c59565b6040518381527ff72c9cb76aa633bc9310fa98738d474339fdf2f23dfac70ccbd65e593f6654df90602001611633565b6115b66001600160a01b03831682611812565b600080546001600160a01b038381166001600160a01b0319831681178455604051919092169283917f8be0079c531659141344cd1fd0a4f28419497f9722a3daafe3b4186f6b6457e09190a35050565b6000828152600260205260408120600501905b81548110156117f3578282828154811061175957611759611cc9565b90600052602060002001541415806117b5575060006001600160a01b03166001600084848154811061178d5761178d611cc9565b600091825260208083209091015483528201929092526040019020546001600160a01b031614155b156117e1576117df8282815481106117cf576117cf611cc9565b9060005260206000200154611641565b505b806117eb81611cdf565b91505061173d565b50505050565b60008161180884612710611caa565b6109879190611c71565b804710156118625760405162461bcd60e51b815260206004820152601d60248201527f416464726573733a20696e73756666696369656e742062616c616e63650000006044820152606401610555565b6000826001600160a01b03168260405160006040518083038185875af1925050503d80600081146118af576040519150601f19603f3d011682016040523d82523d6000602084013e6118b4565b606091505b505090508061192b5760405162461bcd60e51b815260206004820152603a60248201527f416464726573733a20756e61626c6520746f2073656e642076616c75652c207260448201527f6563697069656e74206d617920686176652072657665727465640000000000006064820152608401610555565b505050565b6000818152600260205260408120600501905b815481101561192b5760006001600160a01b03166001600084848154811061196d5761196d611cc9565b600091825260208083209091015483528201929092526040019020546001600160a01b0316146119ae576119ac8282815481106117cf576117cf611cc9565b505b806119b881611cdf565b915050611943565b8280548282559060005260206000209081019282156119fb579160200282015b828111156119fb5782518255916020019190600101906119e0565b50611a07929150611a0b565b5090565b5b80821115611a075760008155600101611a0c565b60008060208385031215611a3357600080fd5b823567ffffffffffffffff80821115611a4b57600080fd5b818501915085601f830112611a5f57600080fd5b813581811115611a6e57600080fd5b866020828501011115611a8057600080fd5b60209290920196919550909350505050565b6000815180845260005b81811015611ab857602081850181015186830182015201611a9c565b81811115611aca576000602083870101525b50601f01601f19169290920160200192915050565b6020815260006109876020830184611a92565b600060208284031215611b0457600080fd5b5035919050565b600060208284031215611b1d57600080fd5b813561ffff8116811461098757600080fd5b60008060408385031215611b4257600080fd5b50508035926020909101359150565b80356001600160801b0381168114611b6857600080fd5b919050565b600080600060608486031215611b8257600080fd5b83359250611b9260208501611b51565b9150611ba060408501611b51565b90509250925092565b600060208284031215611bbb57600080fd5b81356001600160a01b038116811461098757600080fd5b600080600060608486031215611be757600080fd5b8335925060208401359150611ba060408501611b51565b6020808252818101527f4f776e61626c653a2063616c6c6572206973206e6f7420746865206f776e6572604082015260600190565b8183823760009101908152919050565b634e487b7160e01b600052601160045260246000fd5b60008219821115611c6c57611c6c611c43565b500190565b600082611c8e57634e487b7160e01b600052601260045260246000fd5b500490565b600082821015611ca557611ca5611c43565b500390565b6000816000190483118215151615611cc457611cc4611c43565b500290565b634e487b7160e01b600052603260045260246000fd5b6000600019821415611cf357611cf3611c43565b506001019056fea6eef7e35abe7026729641147f7915573c7e97b47efa546f5f6e3230263bcb49a2646970667358221220b7f043e607a25c11997ba48ba0f1cf505fffd4f0e65e70296140d965ab3c900a64736f6c634300080c0033",
    "linkReferences": {},
    "deployedLinkReferences": {}
}