{
    "_format": "hh-sol-artifact-1",
    "contractName": "DimplEscrow",
    "sourceName": "contracts/DimplEscrow.sol",
    "abi": [
        {
            "inputs": [
                {
                    "internalType": "address",
                    "name": "_governanceTokenContract",
                    "type": "address"
                }
            ],
            "stateMutability": "nonpayable",
            "type": "constructor",
            "signature": "contructor(address)"
        },
        {
            "anonymous": false,
            "inputs": [
                {
                    "indexed": false,
                    "internalType": "uint256",
                    "name": "bidHash",
                    "type": "uint256"
                }
            ],
            "name": "BidCanceled",
            "type": "event",
            "topic": "0xf72c9cb76aa633bc9310fa98738d474339fdf2f23dfac70ccbd65e593f6654df",
            "signature": "BidCanceled(uint256)"
        },
        {
            "anonymous": false,
            "inputs": [
                {
                    "indexed": false,
                    "internalType": "uint256",
                    "name": "bidHash",
                    "type": "uint256"
                },
                {
                    "indexed": false,
                    "internalType": "address",
                    "name": "buyer",
                    "type": "address"
                },
                {
                    "indexed": false,
                    "internalType": "uint256",
                    "name": "depositInPeb",
                    "type": "uint256"
                },
                {
                    "indexed": false,
                    "internalType": "uint256",
                    "name": "listingHash",
                    "type": "uint256"
                },
                {
                    "indexed": false,
                    "internalType": "uint128",
                    "name": "nonce",
                    "type": "uint128"
                }
            ],
            "name": "BidCreated",
            "type": "event",
            "topic": "0xecd7b28114d7834073f70c070653269c36e058510f6b3fc126a9b5fddacff23b",
            "signature": "BidCreated(uint256,address,uint256,uint256,uint128)"
        },
        {
            "anonymous": false,
            "inputs": [
                {
                    "indexed": false,
                    "internalType": "uint256",
                    "name": "bidHash",
                    "type": "uint256"
                }
            ],
            "name": "BidSelected",
            "type": "event",
            "topic": "0x8d8b1437eb027177341f053ad111a3528bb841f889cb10ae326e8ec1fff6dacb",
            "signature": "BidSelected(uint256)"
        },
        {
            "anonymous": false,
            "inputs": [
                {
                    "indexed": false,
                    "internalType": "uint256",
                    "name": "listingHash",
                    "type": "uint256"
                }
            ],
            "name": "ListingCanceled",
            "type": "event",
            "topic": "0x5d7a33421ffa4bc07eb8929c5ace6393d3aa5ec3775e4e2f442527876b7dbe88",
            "signature": "ListingCanceled(uint256)"
        },
        {
            "anonymous": false,
            "inputs": [
                {
                    "indexed": false,
                    "internalType": "uint256",
                    "name": "listingHash",
                    "type": "uint256"
                },
                {
                    "indexed": false,
                    "internalType": "address",
                    "name": "seller",
                    "type": "address"
                },
                {
                    "indexed": false,
                    "internalType": "uint256",
                    "name": "depositInPeb",
                    "type": "uint256"
                },
                {
                    "indexed": false,
                    "internalType": "uint256",
                    "name": "priceInPeb",
                    "type": "uint256"
                },
                {
                    "indexed": false,
                    "internalType": "uint128",
                    "name": "remonstrableBlockInterval",
                    "type": "uint128"
                },
                {
                    "indexed": false,
                    "internalType": "uint128",
                    "name": "nonce",
                    "type": "uint128"
                }
            ],
            "name": "ListingCreated",
            "type": "event",
            "topic": "0x7d6c9e442f651c85a9c4c3424d8dec264d2d05104c33e742511dc72218b85df2",
            "signature": "ListingCreated(uint256,address,uint256,uint256,uint128,uint128)"
        },
        {
            "anonymous": false,
            "inputs": [
                {
                    "indexed": true,
                    "internalType": "address",
                    "name": "previousOwner",
                    "type": "address"
                },
                {
                    "indexed": true,
                    "internalType": "address",
                    "name": "newOwner",
                    "type": "address"
                }
            ],
            "name": "OwnershipTransferred",
            "type": "event",
            "topic": "0x8be0079c531659141344cd1fd0a4f28419497f9722a3daafe3b4186f6b6457e0",
            "signature": "OwnershipTransferred(address,address)"
        },
        {
            "anonymous": false,
            "inputs": [
                {
                    "indexed": false,
                    "internalType": "uint256",
                    "name": "listingHash",
                    "type": "uint256"
                }
            ],
            "name": "TransactionApproved",
            "type": "event",
            "topic": "0xbd3984aa34b5ed86a6d4f470c1c4b79e124b8801762705aa1887495eb991b130",
            "signature": "TransactionApproved(uint256)"
        },
        {
            "anonymous": false,
            "inputs": [
                {
                    "indexed": false,
                    "internalType": "uint256",
                    "name": "listingHash",
                    "type": "uint256"
                }
            ],
            "name": "TransactionForceApproved",
            "type": "event",
            "topic": "0xa476146fe4bbf799b994db2d50a53939472e1f3a4c54d3d5187b44eb23d69519",
            "signature": "TransactionForceApproved(uint256)"
        },
        {
            "anonymous": false,
            "inputs": [
                {
                    "indexed": false,
                    "internalType": "uint256",
                    "name": "listingHash",
                    "type": "uint256"
                }
            ],
            "name": "TransactionForceCanceled",
            "type": "event",
            "topic": "0x1b3883864c0b1ba1221c170465546504388dd5e452b28120749bfa97b8501d9c",
            "signature": "TransactionForceCanceled(uint256)"
        },
        {
            "inputs": [
                {
                    "internalType": "uint256",
                    "name": "listingHash",
                    "type": "uint256"
                }
            ],
            "name": "approveTransaction",
            "outputs": [
                {
                    "internalType": "uint256",
                    "name": "",
                    "type": "uint256"
                }
            ],
            "stateMutability": "nonpayable",
            "type": "function",
            "sighash": "0x242232d1",
            "signature": "approveTransaction(uint256)"
        },
        {
            "inputs": [
                {
                    "internalType": "uint256",
                    "name": "depositInPeb",
                    "type": "uint256"
                },
                {
                    "internalType": "uint256",
                    "name": "listingHash",
                    "type": "uint256"
                },
                {
                    "internalType": "uint128",
                    "name": "nonce",
                    "type": "uint128"
                }
            ],
            "name": "bid",
            "outputs": [
                {
                    "internalType": "uint256",
                    "name": "",
                    "type": "uint256"
                }
            ],
            "stateMutability": "payable",
            "type": "function",
            "sighash": "0xf7c967e7",
            "signature": "bid(uint256,uint256,uint128)"
        },
        {
            "inputs": [],
            "name": "bidMinDepositBasisPts",
            "outputs": [
                {
                    "internalType": "uint16",
                    "name": "",
                    "type": "uint16"
                }
            ],
            "stateMutability": "view",
            "type": "function",
            "sighash": "0x34b947d2",
            "signature": "bidMinDepositBasisPts()"
        },
        {
            "inputs": [
                {
                    "internalType": "uint256",
                    "name": "",
                    "type": "uint256"
                }
            ],
            "name": "bids",
            "outputs": [
                {
                    "internalType": "address",
                    "name": "buyer",
                    "type": "address"
                },
                {
                    "internalType": "uint128",
                    "name": "bidCreatedBlock",
                    "type": "uint128"
                },
                {
                    "internalType": "uint256",
                    "name": "depositInPeb",
                    "type": "uint256"
                },
                {
                    "internalType": "uint256",
                    "name": "listingHash",
                    "type": "uint256"
                }
            ],
            "stateMutability": "view",
            "type": "function",
            "sighash": "0x4423c5f1",
            "signature": "bids(uint256)"
        },
        {
            "inputs": [],
            "name": "blockToWeek",
            "outputs": [
                {
                    "internalType": "uint256",
                    "name": "",
                    "type": "uint256"
                }
            ],
            "stateMutability": "view",
            "type": "function",
            "sighash": "0x25fb4c9e",
            "signature": "blockToWeek()"
        },
        {
            "inputs": [
                {
                    "internalType": "bytes",
                    "name": "_calldata",
                    "type": "bytes"
                }
            ],
            "name": "callDimpleERC20",
            "outputs": [
                {
                    "internalType": "bytes",
                    "name": "",
                    "type": "bytes"
                }
            ],
            "stateMutability": "payable",
            "type": "function",
            "sighash": "0x2356dc32",
            "signature": "callDimpleERC20(bytes)"
        },
        {
            "inputs": [
                {
                    "internalType": "uint256",
                    "name": "bidHash",
                    "type": "uint256"
                }
            ],
            "name": "cancelBid",
            "outputs": [
                {
                    "internalType": "address",
                    "name": "",
                    "type": "address"
                }
            ],
            "stateMutability": "nonpayable",
            "type": "function",
            "sighash": "0x9703ef35",
            "signature": "cancelBid(uint256)"
        },
        {
            "inputs": [
                {
                    "internalType": "uint256",
                    "name": "listingHash",
                    "type": "uint256"
                }
            ],
            "name": "cancelListing",
            "outputs": [
                {
                    "internalType": "address",
                    "name": "",
                    "type": "address"
                }
            ],
            "stateMutability": "nonpayable",
            "type": "function",
            "sighash": "0x305a67a8",
            "signature": "cancelListing(uint256)"
        },
        {
            "inputs": [
                {
                    "internalType": "uint256",
                    "name": "listingHash",
                    "type": "uint256"
                }
            ],
            "name": "forceApproveTransaction",
            "outputs": [
                {
                    "internalType": "uint256",
                    "name": "",
                    "type": "uint256"
                }
            ],
            "stateMutability": "nonpayable",
            "type": "function",
            "sighash": "0xacf9697f",
            "signature": "forceApproveTransaction(uint256)"
        },
        {
            "inputs": [
                {
                    "internalType": "uint256",
                    "name": "listingHash",
                    "type": "uint256"
                }
            ],
            "name": "forceCancelTransaction",
            "outputs": [
                {
                    "internalType": "uint256",
                    "name": "",
                    "type": "uint256"
                }
            ],
            "stateMutability": "nonpayable",
            "type": "function",
            "sighash": "0x629d837a",
            "signature": "forceCancelTransaction(uint256)"
        },
        {
            "inputs": [],
            "name": "governanceTokenContract",
            "outputs": [
                {
                    "internalType": "address",
                    "name": "",
                    "type": "address"
                }
            ],
            "stateMutability": "view",
            "type": "function",
            "sighash": "0xd878fe03",
            "signature": "governanceTokenContract()"
        },
        {
            "inputs": [
                {
                    "internalType": "uint256",
                    "name": "priceInPeb",
                    "type": "uint256"
                },
                {
                    "internalType": "uint128",
                    "name": "nonce",
                    "type": "uint128"
                },
                {
                    "internalType": "uint128",
                    "name": "remonstrableBlockInterval",
                    "type": "uint128"
                }
            ],
            "name": "list",
            "outputs": [
                {
                    "internalType": "uint256",
                    "name": "",
                    "type": "uint256"
                }
            ],
            "stateMutability": "payable",
            "type": "function",
            "sighash": "0xe15e9b50",
            "signature": "list(uint256,uint128,uint128)"
        },
        {
            "inputs": [],
            "name": "listingMinDepositBasisPts",
            "outputs": [
                {
                    "internalType": "uint16",
                    "name": "",
                    "type": "uint16"
                }
            ],
            "stateMutability": "view",
            "type": "function",
            "sighash": "0x3eb57f32",
            "signature": "listingMinDepositBasisPts()"
        },
        {
            "inputs": [
                {
                    "internalType": "uint256",
                    "name": "",
                    "type": "uint256"
                }
            ],
            "name": "listings",
            "outputs": [
                {
                    "internalType": "bool",
                    "name": "locked",
                    "type": "bool"
                },
                {
                    "internalType": "address",
                    "name": "seller",
                    "type": "address"
                },
                {
                    "internalType": "uint256",
                    "name": "depositInPeb",
                    "type": "uint256"
                },
                {
                    "internalType": "uint256",
                    "name": "priceInPeb",
                    "type": "uint256"
                },
                {
                    "internalType": "uint256",
                    "name": "bidHash",
                    "type": "uint256"
                },
                {
                    "internalType": "uint128",
                    "name": "bidSelectedBlock",
                    "type": "uint128"
                },
                {
                    "internalType": "uint128",
                    "name": "remonstrableBlockInterval",
                    "type": "uint128"
                }
            ],
            "stateMutability": "view",
            "type": "function",
            "sighash": "0xde74e57b",
            "signature": "listings(uint256)"
        },
        {
            "inputs": [],
            "name": "owner",
            "outputs": [
                {
                    "internalType": "address",
                    "name": "",
                    "type": "address"
                }
            ],
            "stateMutability": "view",
            "type": "function",
            "sighash": "0x8da5cb5b",
            "signature": "owner()"
        },
        {
            "inputs": [],
            "name": "proposableLimit",
            "outputs": [
                {
                    "internalType": "uint256",
                    "name": "",
                    "type": "uint256"
                }
            ],
            "stateMutability": "view",
            "type": "function",
            "sighash": "0xd7d4669c",
            "signature": "proposableLimit()"
        },
        {
            "inputs": [],
            "name": "renounceOwnership",
            "outputs": [],
            "stateMutability": "nonpayable",
            "type": "function",
            "sighash": "0x715018a6",
            "signature": "renounceOwnership()"
        },
        {
            "inputs": [
                {
                    "internalType": "uint256",
                    "name": "listingHash",
                    "type": "uint256"
                },
                {
                    "internalType": "uint256",
                    "name": "bidHash",
                    "type": "uint256"
                }
            ],
            "name": "selectBid",
            "outputs": [
                {
                    "internalType": "uint256",
                    "name": "",
                    "type": "uint256"
                }
            ],
            "stateMutability": "nonpayable",
            "type": "function",
            "sighash": "0xd6f5f120",
            "signature": "selectBid(uint256,uint256)"
        },
        {
            "inputs": [
                {
                    "internalType": "uint16",
                    "name": "_bidMinDepositBasisPts",
                    "type": "uint16"
                }
            ],
            "name": "setBidMinDepositBasisPts",
            "outputs": [],
            "stateMutability": "nonpayable",
            "type": "function",
            "sighash": "0xc7089f74",
            "signature": "setBidMinDepositBasisPts(uint16)"
        },
        {
            "inputs": [
                {
                    "internalType": "uint16",
                    "name": "_listingMinDepositBasisPts",
                    "type": "uint16"
                }
            ],
            "name": "setListingMinDepositBasisPts",
            "outputs": [],
            "stateMutability": "nonpayable",
            "type": "function",
            "sighash": "0x78cb7599",
            "signature": "setListingMinDepositBasisPts(uint16)"
        },
        {
            "inputs": [
                {
                    "internalType": "uint256",
                    "name": "listingHash",
                    "type": "uint256"
                }
            ],
            "name": "setLocked",
            "outputs": [],
            "stateMutability": "nonpayable",
            "type": "function",
            "sighash": "0x17d35f47",
            "signature": "setLocked(uint256)"
        },
        {
            "inputs": [
                {
                    "internalType": "uint16",
                    "name": "_transactionFeeBasisPts",
                    "type": "uint16"
                }
            ],
            "name": "setTransactionFeeBasisPts",
            "outputs": [],
            "stateMutability": "nonpayable",
            "type": "function",
            "sighash": "0x85dd667f",
            "signature": "setTransactionFeeBasisPts(uint16)"
        },
        {
            "inputs": [
                {
                    "internalType": "uint256",
                    "name": "_blockToWeek",
                    "type": "uint256"
                }
            ],
            "name": "setblockToWeek",
            "outputs": [],
            "stateMutability": "nonpayable",
            "type": "function",
            "sighash": "0x746f0965",
            "signature": "setblockToWeek(uint256)"
        },
        {
            "inputs": [],
            "name": "transactionFeeBasisPts",
            "outputs": [
                {
                    "internalType": "uint256",
                    "name": "",
                    "type": "uint256"
                }
            ],
            "stateMutability": "view",
            "type": "function",
            "sighash": "0xd1425cd0",
            "signature": "transactionFeeBasisPts()"
        },
        {
            "inputs": [
                {
                    "internalType": "address",
                    "name": "newOwner",
                    "type": "address"
                }
            ],
            "name": "transferOwnership",
            "outputs": [],
            "stateMutability": "nonpayable",
            "type": "function",
            "sighash": "0xf2fde38b",
            "signature": "transferOwnership(address)"
        }
    ],
    "bytecode": "0x60806040526003805463ffffffff60a01b1916624b004b60a21b179055601e60045562093a806005556203f4806006553480156200003c57600080fd5b506040516200203f3803806200203f8339810160408190526200005f9162000111565b6200006a33620000c1565b600380546001600160a01b039092166001600160a01b03199283161790556000805260016020527fa6eef7e35abe7026729641147f7915573c7e97b47efa546f5f6e3230263bcb4980549091163317905562000143565b600080546001600160a01b038381166001600160a01b0319831681178455604051919092169283917f8be0079c531659141344cd1fd0a4f28419497f9722a3daafe3b4186f6b6457e09190a35050565b6000602082840312156200012457600080fd5b81516001600160a01b03811681146200013c57600080fd5b9392505050565b611eec80620001536000396000f3fe6080604052600436106101665760003560e01c806385dd667f116100d1578063d6f5f1201161008a578063de74e57b11610064578063de74e57b14610493578063e15e9b501461054d578063f2fde38b14610560578063f7c967e71461058057600080fd5b8063d6f5f1201461043d578063d7d4669c1461045d578063d878fe031461047357600080fd5b806385dd667f146103895780638da5cb5b146103a95780639703ef35146103c7578063acf9697f146103e7578063c7089f7414610407578063d1425cd01461042757600080fd5b80633eb57f32116101235780633eb57f32146102675780634423c5f114610289578063629d837a14610314578063715018a614610334578063746f09651461034957806378cb75991461036957600080fd5b806317d35f471461016b5780632356dc321461018d578063242232d1146101b657806325fb4c9e146101e4578063305a67a8146101fa57806334b947d214610232575b600080fd5b34801561017757600080fd5b5061018b610186366004611bbc565b610593565b005b6101a061019b366004611bd5565b610607565b6040516101ad9190611c94565b60405180910390f35b3480156101c257600080fd5b506101d66101d1366004611bbc565b6106ea565b6040519081526020016101ad565b3480156101f057600080fd5b506101d660055481565b34801561020657600080fd5b5061021a610215366004611bbc565b610a37565b6040516001600160a01b0390911681526020016101ad565b34801561023e57600080fd5b5060035461025490600160b01b900461ffff1681565b60405161ffff90911681526020016101ad565b34801561027357600080fd5b5060035461025490600160a01b900461ffff1681565b34801561029557600080fd5b506102e26102a4366004611bbc565b600160208190526000918252604090912080549181015460028201546003909201546001600160a01b03909316926001600160801b03909116919084565b604080516001600160a01b0390951685526001600160801b0390931660208501529183015260608201526080016101ad565b34801561032057600080fd5b506101d661032f366004611bbc565b610a8d565b34801561034057600080fd5b5061018b610cad565b34801561035557600080fd5b5061018b610364366004611bbc565b610ce3565b34801561037557600080fd5b5061018b610384366004611ca7565b610d12565b34801561039557600080fd5b5061018b6103a4366004611ca7565b610d70565b3480156103b557600080fd5b506000546001600160a01b031661021a565b3480156103d357600080fd5b5061021a6103e2366004611bbc565b610da3565b3480156103f357600080fd5b506101d6610402366004611bbc565b610e04565b34801561041357600080fd5b5061018b610422366004611ca7565b611096565b34801561043357600080fd5b506101d660045481565b34801561044957600080fd5b506101d6610458366004611ccb565b6110f4565b34801561046957600080fd5b506101d660065481565b34801561047f57600080fd5b5060035461021a906001600160a01b031681565b34801561049f57600080fd5b506105026104ae366004611bbc565b60026020819052600091825260409091208054600182015492820154600383015460049093015460ff8316946101009093046001600160a01b031693906001600160801b0380821691600160801b90041687565b6040805197151588526001600160a01b03909616602088015294860193909352606085019190915260808401526001600160801b0390811660a08401521660c082015260e0016101ad565b6101d661055b366004611d09565b6111cd565b34801561056c57600080fd5b5061018b61057b366004611d45565b6113dd565b6101d661058e366004611d6e565b611478565b6000546001600160a01b031633146105c65760405162461bcd60e51b81526004016105bd90611d9a565b60405180910390fd5b60008181526002602052604090205461010090046001600160a01b03166105ec57600080fd5b6000908152600260205260409020805460ff19166001179055565b6000546060906001600160a01b031633146106345760405162461bcd60e51b81526004016105bd90611d9a565b60035460405160009182916001600160a01b0390911690349061065a9088908890611dcf565b60006040518083038185875af1925050503d8060008114610697576040519150601f19603f3d011682016040523d82523d6000602084013e61069c565b606091505b50915091506106e182826040518060400160405280601881526020017f63616c6c44696d706c6545524332302072657665727465640000000000000000815250611695565b95945050505050565b600081815260026020526040812060030154829061070757600080fd5b60008381526002602052604090205460ff161561072357600080fd5b600083815260026020908152604080832060030154835260019091529020546001600160a01b0316331461075657600080fd5b60008381526002602081815260408084206003810180548652600180855292862080546001600160a01b0319169055888652928490528054610100600160a81b03198116825594909255918101549101546101009092046001600160a01b0316916107cc9183916107c79190611df5565b6116ce565b6000848152600260208181526040808420600301548452600190915290912001546107f89033906116ce565b60038054600086815260026020818152604080842095860154845260018083529084208301548a8552918390529185015494909101546001600160a01b039093169391926801158e460913d000009261085091611df5565b61085a9190611df5565b6108649190611e0d565b60055460008881526002602052604090206004015461088c906001600160801b031643611e2f565b61089e90670de0b6b3a7640000611e46565b6108a89190611e0d565b6108b29190611e46565b6040516340c10f1960e01b81526001600160a01b03858116600483015260248201839052919250908316906340c10f1990604401600060405180830381600087803b15801561090057600080fd5b505af1158015610914573d6000803e3d6000fd5b50506040516340c10f1960e01b8152336004820152602481018490526001600160a01b03851692506340c10f199150604401600060405180830381600087803b15801561096057600080fd5b505af1158015610974573d6000803e3d6000fd5b50506000805250506001602052600080516020611e97833981519152546040516340c10f1960e01b81526001600160a01b03918216600482015260248101839052908316906340c10f1990604401600060405180830381600087803b1580156109dc57600080fd5b505af11580156109f0573d6000803e3d6000fd5b505050507fbd3984aa34b5ed86a6d4f470c1c4b79e124b8801762705aa1887495eb991b13086604051610a2591815260200190565b60405180910390a15093949350505050565b600081815260026020526040812060030154829015610a5557600080fd5b60008381526002602052604090205461010090046001600160a01b03163314610a7d57600080fd5b610a8683611750565b9392505050565b600080546001600160a01b03163314610ab85760405162461bcd60e51b81526004016105bd90611d9a565b6000828152600260205260409020600301548290610ad557600080fd5b600083815260026020526040902060030154610af057600080fd5b60008381526002602052604090205461010090046001600160a01b0316610b1657600080fd5b60008381526002602052604081208054610100600160a81b03191681556003015560035460009061ffff600160a01b82048116600160b01b9092041611610b6a57600354600160b01b900461ffff16610b79565b600354600160a01b900461ffff165b6000858152600260208190526040822001549192509061ffff831690610ba29061271090611e0d565b610bac9190611e46565b600086815260026020526040902060010154909150811015610c3a57600085815260026020526040902060030154610c0990610be7906117dd565b600087815260026020526040902060010154610c04908490611e2f565b611863565b600080526001602052600080516020611e9783398151915254610c35906001600160a01b031682611863565b610c70565b600085815260026020526040902060030154610c7090610c59906117dd565b600087815260026020526040902060010154611863565b6040518581527f1b3883864c0b1ba1221c170465546504388dd5e452b28120749bfa97b8501d9c906020015b60405180910390a150929392505050565b6000546001600160a01b03163314610cd75760405162461bcd60e51b81526004016105bd90611d9a565b610ce16000611876565b565b6000546001600160a01b03163314610d0d5760405162461bcd60e51b81526004016105bd90611d9a565b600555565b6000546001600160a01b03163314610d3c5760405162461bcd60e51b81526004016105bd90611d9a565b6127108161ffff1610610d4e57600080fd5b6003805461ffff909216600160a01b0261ffff60a01b19909216919091179055565b6000546001600160a01b03163314610d9a5760405162461bcd60e51b81526004016105bd90611d9a565b61ffff16600455565b6000818152600160205260408120546001600160a01b03163314610dc657600080fd5b6000828152600160209081526040808320600390810154845260029092529091200154821415610df557600080fd5b610dfe826117dd565b92915050565b6000818152600260205260408120600301548290610e2157600080fd5b600083815260026020526040902060030154610e3c57600080fd5b60008381526002602052604090205461010090046001600160a01b0316610e6257600080fd5b6000546001600160a01b0316331480610ed3575060008381526002602052604090205460ff16158015610ed3575060008381526002602052604090206004015460065443916001600160801b0380821692610ec792600160801b900490911690611df5565b610ed19190611df5565b105b610edc57600080fd5b6000838152600260208181526040808420600301805485526001835290842080546001600160a01b03191690558684529190525560035460009061ffff600160a01b82048116600160b01b9092041611610f4357600354600160b01b900461ffff16610f52565b600354600160a01b900461ffff165b6000858152600260208190526040822001549192509061ffff831690610f7b9061271090611e0d565b610f859190611e46565b60008681526002602081815260408084206003015484526001909152909120015490915081101561102957610ff8610fbc86611750565b6000878152600260208181526040808420808401546003909101548552600190925290922001548491610fee91611df5565b610c049190611e2f565b600080526001602052600080516020611e9783398151915254611024906001600160a01b031682611863565b611066565b61106661103586611750565b600087815260026020818152604080842080840154600390910154855260019092529092200154610c049190611df5565b6040518581527fa476146fe4bbf799b994db2d50a53939472e1f3a4c54d3d5187b44eb23d6951990602001610c9c565b6000546001600160a01b031633146110c05760405162461bcd60e51b81526004016105bd90611d9a565b6127108161ffff16106110d257600080fd5b6003805461ffff909216600160b01b0261ffff60b01b19909216919091179055565b60008281526002602052604081206003015483901561111257600080fd5b60008481526002602052604090205461010090046001600160a01b0316331461113a57600080fd5b600083815260016020526040902060030154841461115757600080fd5b60008481526002602052604090206003810184905560040180546001600160801b031916436001600160801b031617905561119284846118c6565b6040518381527f8d8b1437eb027177341f053ad111a3528bb841f889cb10ae326e8ec1fff6dacb9060200160405180910390a1509092915050565b60008084116111db57600080fd5b600354600160a01b900461ffff166111f33486611995565b61ffff16101561120257600080fd5b60408051336020808301919091523482840152606082018790526001600160801b0386166080808401919091528351808403909101815260a0909201909252805191012060009060008181526002602052604090205490915061010090046001600160a01b03161561127357600080fd5b600081815260026020819052604090912001541561129057600080fd5b604080516101008082018352600080835233602080850191825234858701908152606086018c81526080870185815260a088018681526001600160801b038d811660c08b019081528b518981528088018d5260e08c019081528d8a5260028089529c9099208b51815499516001600160a81b0319909a16901515610100600160a81b031916176001600160a01b03909916909a02979097178955935160018901559151988701989098559651600386015595519151918616600160801b9290961691909102949094176004830155518051929391926113759260058501920190611b5c565b5050604080518381523360208201523481830152606081018890526001600160801b038681166080830152871660a082015290517f7d6c9e442f651c85a9c4c3424d8dec264d2d05104c33e742511dc72218b85df292509081900360c00190a1949350505050565b6000546001600160a01b031633146114075760405162461bcd60e51b81526004016105bd90611d9a565b6001600160a01b03811661146c5760405162461bcd60e51b815260206004820152602660248201527f4f776e61626c653a206e6577206f776e657220697320746865207a65726f206160448201526564647265737360d01b60648201526084016105bd565b61147581611876565b50565b60008281526002602052604081206003015483901561149657600080fd5b60008481526002602052604090205461010090046001600160a01b03166114bc57600080fd5b600084815260026020819052604090912001546114d99086611df5565b3410156114e557600080fd5b6000848152600260208190526040909120015461150157600080fd5b60035460008581526002602081905260409091200154600160b01b90910461ffff169061152f908790611995565b61ffff16101561153e57600080fd5b60408051336020808301919091528183018890526060808301889052835180840390910181526080909201835281519181019190912060008181526001909252919020546001600160a01b03161561159557600080fd5b604080516080808201835233808352436001600160801b0390811660208086019182528587018d815260608088018e815260008b815260018086528b82209a518b546001600160a01b0319166001600160a01b03909116178b5595518a870180546001600160801b03191691891691909117905592516002808b019190915590516003909901989098558d82529682528781206005018054938401815581528190209091018790558551878152908101929092529381018a9052918201889052918616918101919091527fecd7b28114d7834073f70c070653269c36e058510f6b3fc126a9b5fddacff23b9060a00160405180910390a195945050505050565b606083156116a4575081610a86565b8251156116b45782518084602001fd5b8160405162461bcd60e51b81526004016105bd9190611c94565b6117076004546127106116e19190611e2f565b6116ed61271084611e0d565b6116f79190611e46565b6001600160a01b038416906119ae565b60045461174c9061171a61271084611e0d565b6117249190611e46565b600080526001602052600080516020611e97833981519152546001600160a01b0316906119ae565b5050565b60008181526002602052604081208054610100600160a81b0319811690915561010090046001600160a01b031661178683611acc565b6000838152600260205260409020600101546117a3908290611863565b6040518381527f5d7a33421ffa4bc07eb8929c5ace6393d3aa5ec3775e4e2f442527876b7dbe88906020015b60405180910390a192915050565b600081815260016020818152604080842080546001600160a01b0319811682556003820154865260028085529286208301548787529490935201546001600160a01b0390911691611833918391610c0491611df5565b6040518381527ff72c9cb76aa633bc9310fa98738d474339fdf2f23dfac70ccbd65e593f6654df906020016117cf565b61174c6001600160a01b038316826119ae565b600080546001600160a01b038381166001600160a01b0319831681178455604051919092169283917f8be0079c531659141344cd1fd0a4f28419497f9722a3daafe3b4186f6b6457e09190a35050565b6000828152600260205260408120600501905b815481101561198f57828282815481106118f5576118f5611e65565b9060005260206000200154141580611951575060006001600160a01b03166001600084848154811061192957611929611e65565b600091825260208083209091015483528201929092526040019020546001600160a01b031614155b1561197d5761197b82828154811061196b5761196b611e65565b90600052602060002001546117dd565b505b8061198781611e7b565b9150506118d9565b50505050565b6000816119a484612710611e46565b610a869190611e0d565b804710156119fe5760405162461bcd60e51b815260206004820152601d60248201527f416464726573733a20696e73756666696369656e742062616c616e636500000060448201526064016105bd565b6000826001600160a01b03168260405160006040518083038185875af1925050503d8060008114611a4b576040519150601f19603f3d011682016040523d82523d6000602084013e611a50565b606091505b5050905080611ac75760405162461bcd60e51b815260206004820152603a60248201527f416464726573733a20756e61626c6520746f2073656e642076616c75652c207260448201527f6563697069656e74206d6179206861766520726576657274656400000000000060648201526084016105bd565b505050565b6000818152600260205260408120600501905b8154811015611ac75760006001600160a01b031660016000848481548110611b0957611b09611e65565b600091825260208083209091015483528201929092526040019020546001600160a01b031614611b4a57611b4882828154811061196b5761196b611e65565b505b80611b5481611e7b565b915050611adf565b828054828255906000526020600020908101928215611b97579160200282015b82811115611b97578251825591602001919060010190611b7c565b50611ba3929150611ba7565b5090565b5b80821115611ba35760008155600101611ba8565b600060208284031215611bce57600080fd5b5035919050565b60008060208385031215611be857600080fd5b823567ffffffffffffffff80821115611c0057600080fd5b818501915085601f830112611c1457600080fd5b813581811115611c2357600080fd5b866020828501011115611c3557600080fd5b60209290920196919550909350505050565b6000815180845260005b81811015611c6d57602081850181015186830182015201611c51565b81811115611c7f576000602083870101525b50601f01601f19169290920160200192915050565b602081526000610a866020830184611c47565b600060208284031215611cb957600080fd5b813561ffff81168114610a8657600080fd5b60008060408385031215611cde57600080fd5b50508035926020909101359150565b80356001600160801b0381168114611d0457600080fd5b919050565b600080600060608486031215611d1e57600080fd5b83359250611d2e60208501611ced565b9150611d3c60408501611ced565b90509250925092565b600060208284031215611d5757600080fd5b81356001600160a01b0381168114610a8657600080fd5b600080600060608486031215611d8357600080fd5b8335925060208401359150611d3c60408501611ced565b6020808252818101527f4f776e61626c653a2063616c6c6572206973206e6f7420746865206f776e6572604082015260600190565b8183823760009101908152919050565b634e487b7160e01b600052601160045260246000fd5b60008219821115611e0857611e08611ddf565b500190565b600082611e2a57634e487b7160e01b600052601260045260246000fd5b500490565b600082821015611e4157611e41611ddf565b500390565b6000816000190483118215151615611e6057611e60611ddf565b500290565b634e487b7160e01b600052603260045260246000fd5b6000600019821415611e8f57611e8f611ddf565b506001019056fea6eef7e35abe7026729641147f7915573c7e97b47efa546f5f6e3230263bcb49a2646970667358221220600aaf09255c596e3827ab3616e015b866874e5713705c61b4df17284a33f67d64736f6c634300080c0033",
    "linkReferences": {},
    "deployedLinkReferences": {}
}